:020000040800F2
:10000000580A0020990200086D240008091F000802
:10001000BD1F0008050B0008D52D000800000000DA
:100020000000000000000000000000002927000878
:10003000050C0008000000006F240008C12700081C
:10004000B3020008B3020008B3020008B3020008BC
:10005000B3020008B3020008B3020008B3020008AC
:10006000B3020008B3020008B3020008B30200089C
:10007000B3020008B3020008B3020008B30200088C
:10008000B3020008B3020008B3020008B30200087C
:10009000B3020008B3020008B3020008B30200086C
:1000A000B3020008B3020008B3020008B30200085C
:1000B000B30200081928000825280008B302000828
:1000C000B3020008B3020008B3020008B30200083C
:1000D000B3020008A92D0008B3020008B30200080B
:1000E000B3020008B3020008B3020008B30200081C
:1000F000B3020008B3020008B3020008B30200080C
:10010000B3020008B3020008B3020008B3020008FB
:10011000B3020008B3020008B3020008B3020008EB
:10012000B3020008B3020008B3020008B3020008DB
:10013000B3020008B3020008B3020008B3020008CB
:10014000B3020008B3020008B3020008B3020008BB
:10015000B3020008B3020008B3020008B3020008AB
:10016000B3020008B3020008B3020008B30200089B
:10017000B3020008B3020008B30200080000000048
:10018000B3020008B302000800F002F800F075F8AE
:100190000AA090E8000C82448344AAF10107DA45E2
:1001A00001D100F06AF8AFF2090EBAE80F0013F0BF
:1001B000010F18BFFB1A43F0010318476C41000000
:1001C0008C4100000A444FF0000C10F8013B13F082
:1001D000070408BF10F8014B1D1108BF10F8015BA0
:1001E000641E05D010F8016B641E01F8016BF9D193
:1001F00013F0080F1EBF10F8014BAD1C0C1B09D1EA
:100200006D1E58BF01F801CBFAD505E014F8016B5B
:1002100001F8016B6D1EF9D59142D6D370470000ED
:100220000023002400250026103A28BF78C1FBD8FF
:10023000520728BF30C148BF0B60704703681B0AD4
:1002400028BF41F08001642900F01A81752900F06F
:100250001781782900F08E81E42900F04D8163290F
:1002600000F0E483732900F0E983002070471FB594
:1002700003F0F6FE1FBD10B510BD00F011FC1146D5
:10028000FFF7F5FF02F0FCFD00F02FFC03B4FFF7D1
:10029000F2FF03BC02F0B6FD094880470948004759
:1002A000FEE7FEE7FEE7FEE7FEE7FEE7FEE7FEE726
:1002B000FEE7FEE704480549054A064B7047000083
:1002C000C52700088901000858040020580A0020AA
:1002D0005806002058060020704753EA020C00F030
:1002E00069802DE9F04B4FF00006002B1FBFB3FAD9
:1002F00083F503FA05F424FA05F65E4012BF1643AF
:10030000B2FA82F502FA05F4C5F120051EBF22FA01
:1003100005FC44EA0C04203556EA044C4FEA144428
:1003200018BF641C4FF000084FF00009904271EBB9
:10033000030C39D3002919BFB1FA81F701FA07F686
:10034000B0FA80F700FA07F6C7F120071EBF20FABF
:1003500007FC46EA0C062037B6FBF4FCA7EB0507C2
:10036000103F07F01F0BCBF120060CFA0BFB2CFA09
:1003700006F644BFB3460026202FA4BF5E464FF0CA
:10038000000B5BEA060C08BF4FF0010B19EB0B09E1
:10039000ABFB027C48EB0608C01B06FB02CC0BFB48
:1003A00003CC71EB0C01C1E70B46024641464846BF
:1003B000BDE8F08B13B54FF000004FF00001AFF334
:1003C0000080BDE81C4070470FB4044910B503AA73
:1003D000029800F037FB10BC5DF814FB18000020F9
:1003E00070B5044685690068C10601D5302600E075
:1003F0002026C00707D070BDD4E9012130469047C0
:10040000206A401C20626D1EF6D570BD70B5044692
:1004100085690078C00707D170BDD4E9012120208B
:100420009047206A401C20626D1EF6D570BD70B5E5
:100430000C460546012A05D02878800600D5EA69D1
:10044000002302E0012305E05B1C934202D2E05C42
:100450000028F9D1A869E618C01AA861286A1844CA
:1004600028622846FFF7BCFF04E0D5E9012114F813
:10047000010B9047B442F8D32846FFF7C7FF70BD81
:100480002DE9F0410646002410687529314616A56D
:1004900010D0AFF30080002802DA404213A507E035
:1004A00031688A0701D512A502E0490704D511A5D4
:1004B000012401E0AFF3008000210A2206F12407A5
:1004C00009E0B0FBF2FCB0FBF2F302FB1C003030A1
:1004D00078541846491C0028F3D123462A46304652
:1004E000BDE8F04100F03FBA000000002D00000020
:1004F0002B000000200000002DE9F0418046D21DB5
:1005000022F007020025D2E90002F52915A614D031
:10051000011E72F1000106DA0023D0EB030063EB49
:10052000020211A608E0D8F800108B0701D50FA62B
:1005300002E0490701D50EA601251146002408F165
:10054000240704E000F0CAF930323A55641C50EA3E
:100550000102F7D12B46324621464046BDE8F04124
:1005600000F001BA000000002D0000002B00000088
:100570002000000070B504460D4621461068AFF318
:1005800000802188090502D50F4A7A4402E00E4A0C
:100590007A440E32002104F1240305E000F00F0636
:1005A0000009965D5E54491C0028F7D1207800238D
:1005B000000704D5702D02D009B102231132204664
:1005C000BDE8704000F0CFB9F43A00002DE9F05FCB
:1005D000894604464FF0000ADFF874B1FB44C0F8C6
:1005E00020A02046E1688847002874D0252806D03E
:1005F000D4E901219047206A401C2062F1E70026DF
:100600005F462046E16888472028054607DB312DF4
:1006100005D2781910F8200C08B10643F1E7B007AD
:1006200001D526F00406C4F81CA00027C4F818A0C1
:100630002A2D09D0284602F0DEFB38B304EB8708E8
:10064000303DC8F8185019E059F8041B204604EB57
:1006500087029161E1688847012F054618D1E0695A
:10066000002820DA26F020061DE0D8F8180000EB5C
:10067000800005EB40003038C8F818002046E168DB
:100680008847054602F0B7FB0028EED1012F0AD0BB
:100690002E2D08D12046E16888477F1C0546022F91
:1006A00046F02006C4DBA069002803DA404246F089
:1006B0000106A061F00701D026F010066C2D0BD0CA
:1006C000682D09D04C2D39D06A2D35D0742D35D0F8
:1006D0007A2D33D016E038E0E1682F46204688476F
:1006E000B842054609D16C2F26D04FF48060E168EE
:1006F000064320468847054604E06C2F1AD04FF485
:10070000807006430DB3A5F14100192802D82035A9
:1007100046F400664A462946204626604E46FFF7C4
:100720008DFD80B101280BD0F61D26F0070000F1E9
:10073000080956E74020E4E78020D8E70020D6E704
:1007400006F104094DE7284652E7206ABDE8F09F0C
:10075000CA3A0000032A40F2308010F0030C00F087
:10076000158011F8013BBCF1020F624498BF11F8EB
:1007700001CB00F8013B38BF11F8013BA2F10402A4
:1007800098BF00F801CB38BF00F8013B11F003031C
:1007900000F02580083AC0F0088051F8043B083A80
:1007A00051F804CBA0E80810F5E7121D5CBF51F822
:1007B000043B40F8043BAFF30080D20724BF11F89C
:1007C000013B11F801CB48BF11F8012B24BF00F801
:1007D000013B00F801CB48BF00F8012B704710B572
:1007E000203AC0F00B80B1E81850203AA0E8185029
:1007F000B1E81850A0E81850BFF4F5AF5FEA027CEA
:1008000024BFB1E81850A0E8185044BF18C918C058
:10081000BDE810405FEA827C24BF51F8043B40F8F9
:10082000043B08BF7047D20728BF31F8023B48BFDE
:1008300011F8012B28BF20F8023B48BF00F8012B1C
:1008400070474FF000020429C0F0128010F0030C32
:1008500000F01B80CCF1040CBCF1020F18BF00F8B3
:10086000012BA8BF20F8022BA1EB0C0100F00DB862
:100870005FEAC17C24BF00F8012B00F8012B48BFC0
:1008800000F8012B70474FF0000200B51346944664
:100890009646203922BFA0E80C50A0E80C50B1F1D8
:1008A0002001BFF4F7AF090728BFA0E80C5048BFEC
:1008B0000CC05DF804EB890028BF40F8042B08BF8A
:1008C000704748BF20F8022B11F0804F18BF00F886
:1008D000012B7047704770477047704730B5B0F1D3
:1008E0000A024FEA900E71F100034EEA817EB0EBEE
:1008F0000E0061EB91014FEA101E4EEA017E10EBF3
:100900000E0041EB11114FEA102E4EEA016E10EB72
:100910000E0041EB11214FEA104E4EEA014E10EB52
:100920000E0041EB1141401841F100014FEAD000A7
:1009300040EA41704FEAD10110EB80054FEA810493
:1009400044EA907444EB01046D1944EB0404521B17
:10095000A3414FF0000348BF0A3200D530BD401C10
:1009600041F1000130BD2DE9F0470D469946924610
:10097000044600F124080168880604D5E06921F0E6
:100980001001216000E00120A84201DD471B00E0CA
:100990000027A1697A1902EB0900081AA0612078E2
:1009A000C00602D42046FFF71BFD002608E0D4E96C
:1009B00001211AF806009047206A401C761C20622C
:1009C0004E45F4DB2078C0060AD52046FFF708FD27
:1009D00006E0D4E9012130209047206A401C2062C3
:1009E000381EA7F10107F4DC07E0D4E9012118F86B
:1009F00005009047206A401C2062281EA5F10105D1
:100A0000F3DC2046FFF702FD2078000602D5022025
:100A1000BDE8F0870120FBE710B5436913B1AFF3E0
:100A2000008001E0FFF703FD012010BD127800F106
:100A300024010A7000224A700122EDE711684FF08C
:100A4000FF32E9E7074B70B50D467B4400F011F823
:100A50000446284600F020F810B14FF0FF3070BD7A
:100A6000204670BD1F24000001694A1C02610878FD
:100A7000704700B58FB0CDE90131002105910549DE
:100A80007944CDE9031011466846FFF79FFD0FB08A
:100A900000BD0000E5FFFFFF007B00F08000704715
:100AA000754600F02BF8AE4605006946534620F027
:100AB0000700854618B020B5FFF7FCFBBDE82040D5
:100AC0004FF000064FF000074FF000084FF0000B0A
:100AD00021F00701AC46ACE8C009ACE8C009ACE8BD
:100AE000C009ACE8C0098D46704710B50446AFF3A5
:100AF00000802046BDE81040FFF7C8BB00487047A3
:100B0000F8030020FEE700002DE9F04387B0114C08
:100B100007460F480E9E9046894620601D461C22BF
:100B20006946201DFFF75BFE211D002081E8E003E0
:100B300020766076A0760121E176207760772046E6
:100B400000F0F8F9002800D0012007B0BDE8F083DC
:100B5000006400407C0200207CB50C460546002164
:100B60000E4800F063F9012801D0F1207CBD6B46EE
:100B70000B4A0021094800F069F908B1F2207CBD58
:100B8000074A287869461060002002E00B5C235475
:100B9000401C13698342F9D8107C7CBD7C02002084
:100BA000D802002030B58BB00024012503940E201C
:100BB0000494CDE90850CDE90645059400940194CC
:100BC000029469460E4800F0ABF800B1FEE70C480D
:100BD00000F068FA00B1FEE70221094800F02AF8A7
:100BE00000B1FEE7064840F221312830C46084603D
:100BF000C0E900150221016104750BB030BD000091
:100C00007C0200207047000001A0FFF7DDBB000060
:100C100043414E5F4572726F725F48616E646C65EE
:100C2000722073656E64696E67206661696C6564C5
:100C30000D0A000090F82020012A07D0022A05D0D2
:100C4000416A41F480214162012070470068426995
:100C50000A43426100207047F0B590F820500468C4
:100C6000A468012D05D0022D03D0416A41F48021F2
:100C700053E014F0406F01D1E5004BD5C4F301649B
:100C8000022C03D9416A41F4000146E00125A54048
:100C90001D608B684FF4C0759BB1CE6833434E68BE
:100CA00043EAC603066805EB0417F3514FF4C27319
:100CB000076803EB04130E69FE50097D012905D076
:100CC00009E00E88CB6843EA4653EBE70168CE584B
:100CD00046F48076CE501179D2F805304FF4C676BE
:100CE00041EA0323016806EB04168B511178D2F810
:100CF00001204FF4C47341EA0221026803EB04139C
:100D0000D150006805EB0411425842F001024250F4
:100D10000020F0BD416A41F4001141620120F0BDA4
:100D200010B590F82020012A07D0022A05D0416A88
:100D300041F480214162012010BD3B48D0F80022DF
:100D400042F00102C0F80022D0F8002222F47C52C6
:100D5000C0F80022D0F800224B6A42EA0322C0F811
:100D600000220A7D02F01F0301229A40D0F81C32B3
:100D70009343C0F81C32CB69B3B9D0F80C3293431B
:100D8000C0F80C328C894B6864F31F434C6900EB4C
:100D9000C404C4F840320C890B6864F31F434C69E7
:100DA00000EBC404C4F84432CB69012B16D1D0F84F
:100DB0000C321343C0F80C320C884B6864F31F43A9
:100DC0004C6900EBC404C4F840320C89CB6864F36E
:100DD0001F434C6900EBC404C4F844328B69002BF8
:100DE000D0F804320ED01343C0F804320B69002B44
:100DF000D0F8143208D01343C0F81432096A01291C
:100E000004D008E09343EFE79343F5E7D0F81C12D2
:100E10001143C0F81C12D0F8001221F00101C0F8F3
:100E20000012002010BD00000064004002460020B7
:100E300092F82030012B01D0022B04D1106819B197
:100E4000006900F003007047C068FAE730B590F819
:100E50002040012C05D0022C03D0416A41F48021AE
:100E60005DE00468002955D02469A40754D04FF4EC
:100E7000D874056804EB01142D5915F0040595602C
:100E800005682D594ED0ED08556005682C59C4F3FE
:100E90004004D4604FF4DA74056804EB01142D5952
:100EA00005F00F05156105682D59C5F307259561F6
:100EB00005682C59240C54614FF4DC72046802EB71
:100EC0000112A4581C700468A458240A5C700468B9
:100ED000A458240C9C700468A258120EDA704FF4C7
:100EE000DE72046802EB0112A4581C710468A45855
:100EF000240A5C710468A458240C9C710468A258EC
:100F0000120EDA71006881B1016941F020010161BE
:100F1000002030BDE468A8E7416A41F40011416255
:100F2000012030BD6D0D1560AFE7C16841F02001B3
:100F3000C160EDE770B5040003D094F8200010B153
:100F400004E0012070BD204600F082F820680168AE
:100F500021F00201016000F0CFF90546052604E00A
:100F600000F0CAF9401B0A2811D8206840688007A1
:100F7000F6D42068016841F00101016000F0BCF97D
:100F800005460BE000F0B8F9401B0A2806D9606A54
:100F900040F40030606284F82060D2E72068406846
:100FA000C007EFD0207E0128206801683DD021F0E5
:100FB00080010160607E01282068016838D021F03E
:100FC00040010160A07E01282068016833D021F033
:100FD00020010160E07E0128206801682ED041F0E8
:100FE00010010160207F01282068016829D021F0CC
:100FF00008010160607F01282068016824D021F089
:1010000004010160D4E902010843D4E90412114348
:1010100008436168491E08432168C8610020606276
:10102000012084F82000002070BD41F08001C0E75D
:1010300041F04001C5E741F02001CAE721F010016D
:10104000CFE741F00801D4E741F00401D9E70000FF
:10105000124800B5016887B041F000710160006876
:1010600000F0007005900D481038016841F0010152
:1010700001600068012100F0010005904FF4C050AC
:1010800000900220CDE901010390092004906946F7
:10109000034800F045F807B000BD000040380240AA
:1010A0000000024070B5044690F82000012804D0EA
:1010B000606A40F40020606217E0022084F820009B
:1010C0002068016821F00101016000F015F9054672
:1010D0000DE000F011F9401B0A2808D9606A40F4BD
:1010E00000306062052084F82000012070BD206877
:1010F0004068C007EDD1606270BD90F835100229DC
:1011000003D08021416501207047052180F835100A
:101110000068016821F001010160002070470000B3
:101120002DE9F84FDFF88C91002209F1040A0AF149
:10113000040B4FF00F080BF1040E01260B689640CC
:101140003340B34271D14C68022C01D0122C11D122
:10115000D40800EB84073D6A5407E40E08FA04FC47
:1011600025EA0C05D1F810C00CFA04FC4CEA050C79
:10117000C7F820C007685400032591F804C0A540B3
:101180000CF0030CAF430CFA04FC4CEA070CC0F85B
:1011900000C04F68012F05D0022F03D0112F01D0BE
:1011A000122F11D18768D1F80CC0AF430CFA04FCA0
:1011B0004CEA070CC0F808C04768B7430E79C6F37D
:1011C000001696403E434660C668AE438D68A54013
:1011D0003543C5604C68E40065D5374C256845F457
:1011E00080452560246822F0030504F480440094BF
:1011F000324C2E19D6F808789407250F08FA05F412
:10120000A7432F4CA04201D1002424E02D4CA04242
:1012100001D101241FE02C4CA04201D102241AE08C
:101220002A4CA04202D1032415E03CE0284CA04205
:1012300001D104240FE0274CA04201D105240AE08B
:10124000254CA04201D1062405E0244CA04201D146
:10125000072400E00824AC403C43C6F80848D9F80D
:1012600000404D464E689C43F60300D51C432C605D
:10127000DAF8004055464E689C43B60300D51C433F
:101280002C60DBF800405D464E689C43F60200D5BA
:101290001C432C60DEF8004075464E689C43B60245
:1012A00000D51C432C60521C102AFFF446AFBDE849
:1012B000F88F0000003C01404438024000300140FB
:1012C000000002400004024000080240000C0240FE
:1012D000001002400014024000180240001C0240AE
:1012E0000AB1816170470904FBE70000014800680A
:1012F000000C7047002004E001488068704700003F
:10130000040000200248816802781144816070471F
:1013100004000020094810B5016841F40071016023
:10132000016841F480610160052000F057F80F204A
:1013300000F006F800F024F8002010BD003C024048
:1013400070B50D4D04464FF47A712878B1FBF0F07A
:101350000A490968B1FBF0F000F0D0FA48B9102C46
:1013600007D200222146501E00F018F800206C60C1
:1013700070BD012070BD00000400002000000020AE
:101380007047002809DB00F01F020121914040094D
:10139000800000F1E020C0F800117047F0B40E4B5F
:1013A0001B68C3F30223C3F10704042C00D90424EF
:1013B0001D1D072D01D2002300E0DB1E012606FAC9
:1013C00004F56D1E0D409D409E40761E164045EA78
:1013D0000601F0BC01F0FFBC0CED00E0064A00F095
:1013E000070110684FF6FF03184040EA0120034947
:1013F00008431060704700000CED00E00000FA05A3
:101400002DE9F0470D46040065D0DFF81491D9F8B6
:101410000000EFB200F00F00A84207D289F8007078
:10142000D9F8000000F00F00A84254D120683D4ECA
:10143000810712D5400703D5306840F4E050306092
:101440002078000703D5306840F460403060306891
:10145000A16820F0F000084330602078C0072DD04C
:10146000304960680839012812D0022813D00328B7
:1014700011D00968890700292DDA316821F00301AC
:1014800001433160FFF738FF804641F2883A0EE0B1
:1014900009688903EFE709688901ECE7FFF72CFF8A
:1014A000A0EB0801514502D90320BDE8F087306860
:1014B000616800F00C00B0EB810FEFD1D9F800109B
:1014C000484601F00F01A94207D90770006800F0F3
:1014D0000F00A84201D00120E7E72078400705D59A
:1014E0003068E16820F4E05008433060207800075D
:1014F00006D53068216920F4604040EAC1003060C0
:1015000000F036F83168084AC1F30311515CC84055
:10151000064908600F20FFF713FF0020C5E7000011
:10152000003C0240083802406A40000800000020E9
:101530000448054900680968044AC1F38221515CE6
:10154000C840704700000020083802407A40000878
:101550000448054900680968044AC1F34231515CF6
:10156000C840704700000020083802407A40000858
:10157000154810B5006810F00C01144813D0431042
:1015800004290FD008290ED10F4C241F216801F027
:101590003F022168490207D52068C0F38810A0FBEC
:1015A000030106E0184610BD2168C1F38811A1FBB4
:1015B00000010023FEF791FE2168C1F30141491C9F
:1015C0004900B0FBF1F010BD083802400024F400DF
:1015D0002DE9F84F040073D02078BD4DC00748D0E6
:1015E000BB4808300168C1F38101012908D00068B7
:1015F000C0F3810002280AD1281D0068400206D5E8
:101600002868800335D560680028E4D031E0606840
:10161000B0F5803F10D0B0F5A02F286810D020F48E
:1016200080302860286820F4802028606068A0B19D
:10163000FFF762FE06460CE0286840F48030F4E7CD
:1016400040F480202860F7E7FFF756FE801B6428EF
:1016500072D828688003F7D50BE0FFF74DFE0646E9
:1016600004E0FFF749FE801B6428F1D82868800356
:10167000F7D42078DFF85C9280074FF0000A3ED55F
:1016800093480830016811F00C0F09D00068C0F3CE
:10169000810002280BD18E48001D0068400206D44C
:1016A0002868800715D5E068012809D111E0E068B5
:1016B000B8B10120C9F80000FFF71EFE064605E09C
:1016C00003E1FFF719FE801B0228C1D828688007B4
:1016D000F7D52868216920F0F80040EAC1002860A9
:1016E0000DE0C9F800A0FFF707FE064604E0FFF78B
:1016F00003FE801B02281FD828688007F7D42078B3
:10170000000722D5724F74496069743770B10120A7
:101710000860FFF7F1FD064604E0FFF7EDFD801BD2
:10172000022809D838688007F7D50EE0C1F800A074
:10173000FFF7E2FD064605E081E0FFF7DDFD801BD7
:1017400002287CD838688007F7D42078400769D50C
:10175000DFF87CB14FF000080BF1400BDBF8000024
:10176000C0000CD4DBF8001041F08051CBF8001021
:10177000DBF800004FF0010800F080500090574F58
:101780003868C0050FD4386840F480703860FFF7BF
:10179000B3FD064604E0FFF7AFFD801B02284ED8DC
:1017A0003868C005F7D54A4FA068703701280FD0B8
:1017B0000528386810D020F001003860386820F023
:1017C00004003860A068B0B1FFF796FD06460EE051
:1017D000386840F00100F4E740F004003860F7E7B3
:1017E000FFF78AFD811B41F28830814265D8386855
:1017F0008007F5D50DE0FFF77FFD064606E0FFF711
:101800007BFD811B41F28830814256D838688007C1
:10181000F5D4B8F1000F05D0DBF8001021F08051AD
:10182000CBF80010A069C8B3294908310968C1F391
:101830008101022949D00228504607D000E03CE04F
:10184000C9F86000FFF758FD044639E04F46C9F873
:101850006000FFF751FD064604E0FFF74DFD801BD9
:1018600002282AD828688001F7D4D4E90701084360
:10187000A16A1B4A490802EB0141626A41EA8211EE
:10188000084394F82C1040EA01611148001D0160E2
:1018900001203866FFF730FD044605E013E0FFF74E
:1018A0002BFD001B022808D828688001F7D50AE024
:1018B000FFF722FD001B022802D90320BDE8F88FA4
:1018C00028688001F4D40020F8E70120F6E7000042
:1018D0000038024000004742800E4742007000403E
:1018E0000000FFFF4FF0E0210428086903D020F03A
:1018F00004000861704740F00400FAE710B5401E8C
:10190000B0F1807F01D3012010BD4FF0E024606171
:101910000F21601701F05FFA0020A061072020610D
:10192000002010BD7047704710B5040003D094F834
:101930003D0010B107E0012010BD002084F83C00FC
:10194000204600F00DF8022084F83D00211D20689B
:1019500000F082FF012084F83D00002010BD00004F
:1019600008B500680B49884212D10B48016841F064
:10197000020101600068032200F0020000900121D2
:101980001D20FFF70BFDBDE808401D20FFF7F9BC47
:1019900008BD000000040040403802400168CA68E9
:1019A00042F00102CA600068816801F0070106295F
:1019B00003D0016841F001010160002070477047C9
:1019C00070B50446006801694FF00005C9438907F6
:1019D00015D4C168C943890711D4E91E01610120EA
:1019E0002077206880698007204602D0FFF7E7FF54
:1019F00004E000F098F8204600F096F8257720687B
:101A00000169C943490717D4C168C943490713D4B9
:101A10006FF004010161022020772068806910F4D2
:101A2000407F204602D0FFF7CAFF04E000F07BF8B9
:101A3000204600F079F8257720680169C943090735
:101A400016D4C168C943090712D46FF008010161B7
:101A5000042020772068C0698007204602D0FFF765
:101A6000AEFF04E000F05FF8204600F05DF8257757
:101A700020680169C943C90617D4C168C943C906AA
:101A800013D46FF010010161082020772068C0692D
:101A900010F4407F204602D0FFF791FF04E000F0F1
:101AA00042F8204600F040F8257720680169C943D4
:101AB000C90708D1C168C943C90704D1891E01619A
:101AC000204600F033F820680169C943090609D4AB
:101AD000C168C943090605D46FF080010161204641
:101AE000FFF720FF20680169C943490609D4C1688E
:101AF000C943490605D46FF040010161204600F05A
:101B00004FF820680169C94389060BD4C168C943ED
:101B1000890607D46FF0200101612046BDE87040BE
:101B2000FFF701BF70BD70477047000038B5174917
:101B3000884227D11649D1F8A80220B30020C1F865
:101B4000A802144D144C2868401C04EB00112860B6
:101B5000C0B200F08DFC286804EB0010008801F092
:101B60004DFA2968C31704EB0114C4E90203228863
:101B7000009202460948FEF727FC2868032801D195
:101B80000020286038BD0120D9E70000780300203C
:101B90000080424240000020F80200204842000835
:101BA0007047704710F8391F4078084370470000AD
:101BB00070B5026804461068D168536910F00F0FC1
:101BC00050D003F0010501F4907635435DD0C20793
:101BD00005D0CA0503D5E26B42F00102E263420779
:101BE00005D5DA0703D0E26B42F00202E263820716
:101BF00005D5DA0703D0E26B42F00402E263020784
:101C000005D5DA0703D0E26B42F00802E263E26B2B
:101C1000002A33D0800604D5880602D5204600F07D
:101C2000BFFE20684069E16BC0F38010090700D453
:101C300028B3204600F0A6FE2068416949061AD55F
:101C4000416921F040014161606BA0B11B49016510
:101C5000606BFFF752FA002810D0606B016DBDE891
:101C600070400847830610D58B060ED52046BDE888
:101C7000704000F095BE2046FFF793FF70BD2046F0
:101C8000FFF78FFF0020E06370BD030606D50B064B
:101C900004D52046BDE8704001F024B84006F3D5D5
:101CA0004806F1D5D168204621F04001D1602021BD
:101CB00084F8391000F027F970BD0000752900087C
:101CC00070B5040004D094F83900002510B106E086
:101CD000012070BD84F83850204600F023F82420FD
:101CE00084F839002068C16821F40051C1602046A1
:101CF00000F0A2FE2068016921F490410161206892
:101D0000416921F02A0141612068C16841F4005114
:101D1000C160E563202084F8390084F83A0000208F
:101D200070BD000010B500681A4986B088422FD1F6
:101D30001948016841F001010160006800F00100EC
:101D4000059015481430016841F0100101600068E9
:101D5000012100F0100005904FF400700090022067
:101D6000CDE90101039007200C4C04906946204600
:101D7000FFF7D6F92115009169462046FFF7D0F903
:101D80002520FFF7FEFA032211462520FFF706FB68
:101D900006B010BD00100140303802400000024083
:101DA00090F83A30202B22D1F9B1F2B190F83830C6
:101DB000012B1CD081628285C2850021C163222251
:101DC00080F83A2080F838100168CA6842F48072BE
:101DD000CA6001684A6942F001024A610068C1684C
:101DE00041F02001C16000207047012070470220AF
:101DF0007047000030B50068114988420CD1114A83
:101E00005088010408D41146440409784FF00003B7
:101E100006D52F2901D0538030BD40F400400DE09D
:101E20002A2909D0C0F30D04074D401C80B2295562
:101E30005080C728EFD830BD40F48040508030BD7E
:101E40000010014014000020740100202DE9F84327
:101E5000044690F839001E4617460D46202850D1FA
:101E6000A5B19FB194F8380001284AD0012084F828
:101E700038004FF00008C4F83C80212084F8390075
:101E8000FFF73AFAA7848146E78426E00120BDE8FF
:101E9000F883E08C401EE084A0684B46B0F5805F7C
:101EA0004FF000024FF080012046009603D000F072
:101EB0004AFFE8B90DE000F046FFC8B9288821685C
:101EC000C0F308004860206908B16D1C05E0AD1C36
:101ED00003E0216815F8010B4860E08C0028D8D198
:101EE0004B46002240212046009600F02CFF08B10E
:101EF0000320CCE7202084F8390084F838800020C3
:101F0000C5E70220C3E77047FEE7000070B514483C
:101F100086B00025016841F001010160016801F00F
:101F200001010591016841F010010160006803247E
:101F300000F01000059002200126CDE90204CDE951
:101F4000006569460748FFF7EBF81C2003948DE80D
:101F5000610069460448FFF7E3F806B070BD000071
:101F6000303802400000024000100240114810B515
:101F7000016886B041F02001016000680E4C00F05D
:101F8000200005904FF4C060009001200190029065
:101F90000320039069462046FFF7C2F80122510250
:101FA0002046FFF79DF9012291022046FFF798F99C
:101FB00006B010BD3038024000140240FEE70000B9
:101FC00070B586B00021244A0091019102910391DD
:101FD000224BD16091601B680C461844106011754B
:101FE0000820106181208DF800008DF801108DF817
:101FF00002101A4B8DF8031001910C336A461649F2
:102000001748FEF729FE10B11648FEF7DDF902A9C0
:1020100004A8FEF7A1FD09281BD29DF8101012A0FC
:10202000FEF7D2F96E4602AD16A0295DFEF7CCF997
:10203000285D315D884203D014A0FEF7C5F903E0A6
:10204000641CE4B2082CEFD3082C02D113A0FEF7D5
:10205000BBF906B070BD0000C002002020000020C7
:102060007C020020100C000843414E69643A30782D
:102070002532782C20526563656976652064617429
:1020800061203A00253032782000000073656E64CC
:10209000206661696C21200D0A00000073656E6482
:1020A000207375636365737321200D0A00000000BF
:1020B0002DE9F0470A4692B0014606A8FEF74AFB12
:1020C00006A98AA0FEF780F99DF81D009DF81E1054
:1020D00000EB800001EB40019DF81C00642210FB26
:1020E00002F29DF81B0000EB4003C3EBC01002EBB3
:1020F000C00008449DF81A1040F2712211FB02F151
:1021000000EB0110DFF8F4919DF8231000EB0902B9
:102110009DF822004FEAE27A00EB800001EB4001DB
:102120009DF821001446642310FB03F39DF8200062
:1021300000EB4005C5EBC01003EBC00008449DF860
:102140001F1040F2712311FB03F100EB011000EBB3
:1021500009069DF828009DF8291000EB800001EB8E
:1021600040019DF827004FEAE678642310FB03F353
:102170009DF8260000EB4005C5EBC01003EBC00046
:1021800001449DF8250040F2712310FB03F001EBA0
:10219000001000EB09059DF82400E917302803D052
:1021A00000206D4260EB01019DF82D009DF82E305E
:1021B00000EB800003EB40039DF82C00642710FB2C
:1021C00007F79DF82B0000EB400CCCEBC01007EBA1
:1021D000C00018449DF82A3040F2712713FB07F322
:1021E00000EB03109DF8187048449DF819304FEA31
:1021F000E079CDF814900096CDE9031007EB87073E
:102200004FF6F05C0CEB47073B449FB2CDE90185EC
:10221000534639463AA0FEF7D7F8072F1BD2DFE81E
:1022200007F01A041D2E3C4057003246E1B26846C2
:1022300000F0FEFE142269460CA8FEF7D0FABDF8A5
:102240003A000090BDF93830BDF936209DF83010C5
:102250003948FEF7B9F812B0BDE8F087E0B2374967
:1022600000F0E8F9354801798378C2788DE80E00EE
:102270004379027841783248FEF7A6F8EBE7314817
:1022800000EB0415E0B2294600F0F2F8AB886A884A
:1022900029882D48FEF798F8DDE7E0B2FFF790FEB9
:1022A000D9E72B46B2B2E1B2684600F061F81422D9
:1022B00069460CA8FEF793FABDF83A000090BDF904
:1022C0003830BDF936209DF830101B48FEF77CF8F9
:1022D0001A49E0B2083100F047F918481038D0E93F
:1022E00006231AA0FEF770F8B5E700006D6F746F53
:1022F000725F6F70656E25730D0A0000B0DCF7FF2A
:102300000D0A49443A25642C64617461303A256CA5
:102310006C642C64617461313A256C6C642C64616A
:102320007461323A256C6C642C64617461333A25B3
:102330006C6C640D0A000000784100083000002039
:10234000BC400008F8020020D84100087561727492
:102350005F6765745F4D6F746F72416E676C653A4D
:10236000256C6C6420656E64616E676C650D0A0097
:10237000F0B58BB0054600202E4E009001900290E3
:1023800003902D4FF060B0603F68044639443160DF
:10239000307508213161A4218DF800108DF80100FD
:1023A0008DF80220100A8DF803008DF80430180A09
:1023B0008DF80500180C8DF80600180E1E4B8DF8D0
:1023C00007000C336A4631461C48FEF745FC10B145
:1023D0001B48FDF7F9FF02A909A8FEF7BDFB092874
:1023E00010D29DF8241017A0FDF7EEFF02AE1CA03E
:1023F000315DFDF7E9FF641CE4B2082CF7D31AA0A5
:10240000FDF7E2FF9DF809008DF81000BDF80A0005
:10241000ADF81600BDF80C00ADF81800BDF80E00C0
:10242000ADF81A00122204A92846FEF793F90BB062
:10243000F0BD0000C0020020200000207C0200202F
:10244000100C000843414E69643A30782532782CEC
:1024500020526563656976652064617461203A0085
:1024600025303278200000000D0A000070477047C8
:10247000F0B585B00D4600212D4A009101910291E1
:1024800003912C4BD16091601B680C46184410607E
:1024900011750820106190208DF800008DF8011052
:1024A0008DF80210234B8DF8031001910C336A460E
:1024B0001F492148FEF7D0FB10B12048FDF784FFEB
:1024C00002A904A8FEF748FB092810D29DF81010B5
:1024D0001BA0FDF779FF02AF20A0395DFDF774FF67
:1024E000641CE4B2082CF7D31EA0FDF76DFF9DF825
:1024F000080090280FD04FF6FF70294660F30F01B7
:1025000060F31F4160F30F06AD60C5E90016ED6092
:1025100005B02846F0BDBDF80A00294660F30F015A
:10252000BDF80C0060F31F41BDF80E00EAE70000A3
:10253000C0020020200000207C020020100C0008B7
:1025400043414E69643A30782532782C20526563D5
:10255000656976652064617461203A0025303278BF
:10256000200000000D0A000070B586B00D46002165
:10257000224A0091019102910391214BD160916017
:102580001B680C46184410601175082010619220D9
:102590008DF800008DF801108DF80210184B8DF8A1
:1025A000031001910C336A4614491648FEF754FB98
:1025B00010B11548FDF708FF02A904A8FEF7CCFAF0
:1025C000092810D29DF8101010A0FDF7FDFE02AEF4
:1025D00015A0315DFDF7F8FE641CE4B2082CF7D3BA
:1025E00013A0FDF7F1FE9DF80900DDF80A1040EA9E
:1025F0000120C117C5E9000106B070BDC00200206E
:10260000200000207C020020100C000843414E698D
:10261000643A30782532782C205265636569766596
:102620002064617461203A00253032782000000077
:102630000D0A000070B588B00D4600212C4A0091AB
:102640000191029103912B4BD16091601B680C4664
:102650001844106011750820106130208DF80000BA
:102660008DF801108DF80210224B8DF803100191A6
:102670000C336A461E492048FEF7EEFA10B11F4897
:10268000FDF7A2FE02A906A8FEF766FA092810D2F5
:102690009DF818101AA0FDF797FE02AE1FA0315D3D
:1026A000FDF792FE641CE4B2082CF7D31DA0FDF7E1
:1026B0008BFE9DF80A008DF810009DF80B008DF838
:1026C00011009DF80C008DF812009DF80D008DF89A
:1026D00013009DF80E008DF814009DF80F008DF882
:1026E000150004982860BDF81400A88008B070BDDB
:1026F000C0020020200000207C020020100C0008F6
:1027000043414E69643A30782532782C2052656313
:10271000656976652064617461203A0025303278FD
:10272000200000000D0A00007047000070B5214C29
:1027300092B00025266846F080562660246804F092
:10274000805411941C4C266846F480462660246808
:102750000DF1240C04F48044119401240094240409
:102760000194022406948CE80D006605CDE907610A
:102770006846FEF72DFF00B1FEE70CA90F2081E8A7
:1027800031004FF4A0500F904FF48050109005216D
:102790000CA8FEF735FE00B1FEE7FEF7A7FD41F2FB
:1027A0000101884204D10548016841F4807101604B
:1027B00012B070BD4038024000700040003C024042
:1027C000FEF7A0BD1048016841F4700101600F4898
:1027D000016841F0010101600C4A002108321160DA
:1027E00002680B4B1A400260031D0A4A1A60026815
:1027F00022F48022026005480C300160024958062C
:10280000803908607047000088ED00E00038024021
:10281000FFFFF6FE103000240148FFF7D1B800009A
:102820007803002010B50A4C2068C068C043C00778
:1028300009D1084800698047216800204862216862
:102840006420C862E06021686FF00100086110BD7B
:10285000B803002080000020F0B50268254D264E08
:10286000264FDFF89CC0274B4FF0804EA84209D07E
:10287000704507D0B04205D0B84203D0604501D0C2
:10288000984203D122F070044A682243A8421BD028
:10289000704519D0B04217D0B84215D0604513D05A
:1028A000984211D0184CA0420ED0184CA0420BD028
:1028B000174CA04208D0174CA04205D0164CA0429D
:1028C00002D0164CA04203D122F44074CA682243BD
:1028D0004C6922F08002224302608A68C2620A6860
:1028E0008262A84201D0984201D1096901630121A5
:1028F0004161F0BD000001400004004000080040BC
:10290000000C004000040140004001400044014030
:102910000048014000180040001C0040002000401A
:10292000F8B5064610480D460024016841F0040140
:1029300001600068032200F00400009011461E2090
:10294000FEF72CFD1E20FEF71CFD094A074810600B
:10295000C2E90154C2E903641046FEF7E5FFBDE891
:10296000F8400348FFF71AB840380240000800401A
:10297000B803002010B5806B0021C185C184FFF72A
:1029800010F910BD0168CA6822F49072CA6001682B
:102990004A6922F001024A61202180F83A1070470A
:1029A00010B590F83A10222901D0022010BD81689C
:1029B000B1F5805F11D00169002901681FD0496815
:1029C00001F07F03816A4A1C82620B70C18D491E2F
:1029D0000904090CC18518D02BE00269816A002A1C
:1029E0000268526805D0D2B20A80816A491C8162AD
:1029F000ECE7C2F308020A80816A891CF7E74A689B
:102A0000816A4B1C83620A70E0E70168CA6822F0A1
:102A10002002CA600168CA6822F48072CA60016834
:102A20004A6922F001024A61202180F83A10FFF73A
:102A3000E1F9002010BD00002DE9F04104460068D6
:102A40000169E26821F4405111430161A1682069E4
:102A5000E26901436069104301432068C26849F29A
:102A60000C639A430A43C26020684169A26921F459
:102A7000407111434161E0696425B0F5004F974A08
:102A8000974920684FF032083FD0884201D09042E9
:102A90007CD1FEF75DFD00EBC00101EB0010616829
:102AA0008900B0FBF1F6FEF753FD00EBC00101EB2E
:102AB000001061688900B0FBF1F0B0FBF5F06FF039
:102AC0001801484306EB800108EB0110B0FBF5F05C
:102AD00000F0F006FEF73CFD00EBC00101EB00103A
:102AE00061688900B0FBF1F0B0FBF5F006EB001671
:102AF000FEF72EFD00EBC00101EB001061688900BC
:102B0000B0FBF1F7FEF724FDD2E0884201D09042FD
:102B10003DD1FEF71DFD00EBC00101EB0010616827
:102B20004900B0FBF1F0B0FBF5F00601FEF710FD37
:102B300000EBC00101EB001061684900B0FBF1F748
:102B4000FEF706FD00EBC00101EB001061684900D3
:102B5000B0FBF1F0B0FBF5F06FF01801484307EB64
:102B6000800108EBC100B0FBF5F000F0F80006EBC7
:102B70004006FEF7EDFC00EBC00101EB00106168C0
:102B80004900B0FBF1F7FEF7E3FC3CE055E0FEF74F
:102B9000CFFC00EBC00101EB001061684900B0FB05
:102BA000F1F0B0FBF5F00601FEF7C2FC00EBC0014E
:102BB00001EB001061684900B0FBF1F7FEF7B8FCCB
:102BC00000EBC00101EB001061684900B0FBF1F0BF
:102BD000B0FBF5F06FF01801484307EB800108EBFC
:102BE000C100B0FBF5F000F0F80006EB4006FEF780
:102BF0009FFC00EBC00101EB001061684900B0FBD5
:102C0000F1F7FEF795FC00EBC00101EB00106168E5
:102C10004900B0FBF1F0B0FBF5F06FF0180148434C
:102C200007EB800108EBC100B0FBF5F000F00700F6
:102C3000216830448860BDE8F081FEF779FC00EB44
:102C4000C00101EB001061688900B0FBF1F6FEF7EE
:102C50006FFC00EBC00101EB001061688900B0FB64
:102C6000F1F0B0FBF5F06FF01801484306EB80017E
:102C700008EB0110B0FBF5F000F0F006FEF758FC91
:102C800000EBC00101EB001061688900B0FBF1F0BE
:102C9000B0FBF5F006EB0016FEF74AFC00EBC001B6
:102CA00001EB001061688900B0FBF1F7FEF740FC12
:102CB00000EBC00101EB001061688900B0FBF1F08E
:102CC000B0FBF5F06FF01801484307EB800108EB0B
:102CD0000110B0FBF5F000F00F00A9E7001401406F
:102CE0000010014090F83910212901D002207047CE
:102CF0008168B1F5805F016A0BD04A1C02620268EC
:102D000009785160C18C491E0904090CC1840ED098
:102D100017E009880268C1F30801516001690029C0
:102D2000016A02D0491C0162ECE7891CFBE70168DB
:102D3000CA6822F08002CA600068C16841F04001A0
:102D4000C160002070472DE9F0411E4617468846B5
:102D50000446069D1CE0681C1AD025B1FEF7CCFA8B
:102D6000801BA84214D92068C16821F4D071C160C9
:102D70002068416921F001014161202084F8390077
:102D800084F83A00002084F838000320BDE8F08180
:102D90002068016838EA010004D00020B842DAD087
:102DA0000020F3E70120F9E710B50848FEF700FF1F
:102DB0000648FEF7F7FE2028FAD10122044903480D
:102DC000FEF7EEFF0028F8D110BD00003C02002005
:102DD00014000020FEE70907090E002804DB00F1BB
:102DE000E02080F80014704700F00F0000F1E020B0
:102DF00080F8141D704730380A2801D2012070472E
:102E0000002070477047000010B504460420FEF70C
:102E100069FD0148046010BD1000002070B5054632
:102E200000244FF47A7603E0304600F005F8641C85
:102E3000AC42F9D370BD000070B54FF0E025002121
:102E40006C69094AAB6912685043AA699A42FCD07E
:102E500002D2A3EB020302E0A4EB020633441944BE
:102E600013468142F1D370BD1000002003490A6867
:102E70005206FCD5C2B24A60704700000010014003
:102E8000E6B00025C82101A8FDF7FDFCC82133A844
:102E9000FDF7F9FCFEF73EFA0723022208214FF462
:102EA000A870FFF743FCA820FFF7AEFF4FF4E13016
:102EB00000F03AF9FFF75AF8FFF728F8A8464FF460
:102EC00000324446062311014046CDF80080FDF74C
:102ED0001BFEFDF767FE21463046FDF7B2FCDFF82A
:102EE000B090DFF8B0A04C46B9F80000010430D52E
:102EF000C0F30D06314628A0FDF766FA32462F4989
:102F000001A8FDF727FC4FF47A7332462B492C4871
:102F1000FEF79CFF2A4800680168C9434906FBD4B4
:102F200028A0FDF751FAA4F80080F1B201A8FFF73C
:102F3000BFF801A925A0FDF747FA002401AF05E07D
:102F4000395D24A0FDF740FA641CE4B2B442CAD251
:102F5000F6E76D1CADB2C820B5FBF0F100FB1150D7
:102F600010B91DA0FDF730FA1E20B5FBF0F100FBF3
:102F7000115030B9DAF8A402514630B10020C1F83E
:102F8000A4020A20FFF74AFFADE70120F7E700009F
:102F900016000020008042420D0A796F752073658B
:102FA0006E64206D657373616765206C656E3A258C
:102FB000642C646174613A0D0A0000007401002001
:102FC0003C0200200D0A0D0A0000000025730D0AC6
:102FD00000000000257800000D0A706C65617365C3
:102FE0002073656E64206461746120757365202AA6
:102FF0002F20656E64200D0A000000000A4A516807
:103000005060411A4FF6FF70014491FBF0F300FB52
:103010001310B0F5004F02DBA0F57F40FF38916838
:10302000084490607047000020000020006870474E
:1030300070B58AB0002305462D4800930193029392
:1030400003932C4EC360836036681C463144016094
:10305000037508210161A2208DF800008DF804207D
:10306000100A8DF805008DF80130100C8DF8023033
:103070008DF806008DF80330100E1E4B8DF80700FA
:103080000C336A461A491C48FDF7E6FD10B11B488F
:10309000FDF79AF902A909A8FDF75EFD092810D2EB
:1030A0009DF8241016A0FDF78FF902AE1BA0315D2C
:1030B000FDF78AF9641CE4B2082CF7D319A0FDF7D8
:1030C00083F99DF809008DF81000BDF80A00ADF8ED
:1030D0001600BDF80C00ADF81800BDF80E00ADF8F4
:1030E0001A00122204A92846FDF734FB0AB070BD6D
:1030F000C0020020200000207C020020100C0008EC
:1031000043414E69643A30782532782C2052656309
:10311000656976652064617461203A0025303278F3
:10312000200000000D0A00000B4910B5094AC1E952
:10313000002000208860C860086188610C20486118
:103140000846FEF7BDFDBDE81040012203490248D4
:10315000FEF726BE001001403C02002014000020B3
:1031600070B594B0064613AB11AA694600F0DCF9BD
:10317000002824D18DF840001D4C042514E020685F
:1031800005EBC10113AB405812AA08A900F0CCF915
:10319000002814D1694608A800F001FC88B19DF808
:1031A0004000401C8DF84000207D9DF84010884272
:1031B000E5D8207D9DF8401088420ED1042014B03F
:1031C00070BD9DF848009DF84410884201D9022046
:1031D000F5E79DF84000A075EBE710A9304600F038
:1031E00057FA0028EBD19DF8400060750020E6E713
:1031F000800000202DE9F0417E4E9AB0B57D307DF3
:10320000A8427CD90421306801EBC50119AB4058B4
:1032100018AA10A900F088F910A977A0FDF7D4F832
:1032200000240DF1180832E0308B0121A140084242
:1032300017D0222172A0FDF7C7F8204600F090FABF
:10324000811970A02431FDF7BFF822216CA0FDF791
:10325000BBF8204600F084FA3044243048F82400BB
:103260000BE0204600F07CFA3044416A48F8241014
:10327000F07D00B364A0FDF7A7F89DF86000401E44
:10328000844202D062A0FDF79FF8641CE4B29DF86E
:1032900060008442C8D35FA0FDF796F800F0A6FA5C
:1032A000707D0B2814D2DFE800F0080D313840485B
:1032B000525E6B78890058A0DDE7306850F8350021
:1032C000804704E0306850F8351006988847074674
:1032D00000F058FA9DF8640001286ED04FA0FDF769
:1032E00073F896F8EC0000280DD0D6F8F0000A210B
:1032F000B0FBF1F201FB1202B0FBF1F100E002E0E1
:1033000047A0FDF761F81AB0BDE8F081306850F8C9
:103310003520DDE906019047D9E7306806AC50F862
:10332000353094E807009847D1E7306806AF50F889
:10333000354097E80F00A047C9E70A980090306829
:1033400006AF50F8354097E80F00A047BFE7DDE92A
:103350000A01CDE90001306806AF50F8354097E822
:103360000F00A047B3E70AAB06AF93E807008DE86C
:103370000700306850F8354097E80F00A047A6E7EF
:103380000AAC06AF94E80F008DE80F00306850F8E3
:10339000354097E80F00A04799E70BAC06AF94E8DB
:1033A0000F0001AC84E80F000A980090306850F8D4
:1033B000354097E80F00A04789E711E00CAC06AF55
:1033C00094E80F0002AC84E80F00DDE90A01CDE9C2
:1033D0000001306850F8354097E80F00A04776E7C5
:1033E000F07D394618B116A0FCF7EEFF79E717A07B
:1033F000FAE70000800000200D0A25732800000075
:103400002563000025730000305825580000000097
:103410002C00000029000000256C64003B0D0A0010
:1034200046756E6374696F6E2052756E2054696DB7
:10343000653A25642E2531646D730D0A0000000085
:103440003D305825583B0D0A000000003D256C75A5
:103450003B0D0A00F0B500252E462F462C4603787A
:103460002C2B03D0292B04D01BB103E014B9012667
:1034700000E00CB317B1222B2AD02AE0A3F1300CC4
:10348000BCF1090F19D92D2B17D02B2B15D0A3F177
:10349000610CBCF1050F10D9A3F1410CBCF1050F73
:1034A0000BD9582B09D0782B07D0222B0CD0202BEE
:1034B0001ED02C2B1CD0FF270CE05EB9612B00D353
:1034C000203B01F8013B13E026B901273C460FE001
:1034D000002426B10020087017702846F0BD3CB1CA
:1034E0005C2B02D16D1CEDB2401C037801F8013B4E
:1034F0006D1CEDB2401CB2E730B5002515700AE036
:1035000001F8014B1478401C641CE4B214709C4216
:1035100001D3012030BD0478202C01D0002CEFD144
:103520000D70002030BD00002DE9FF4F002482B057
:1035300089469846A2462746012526462246EB465E
:10354000029915E0202810D002F07F03052B0CD241
:1035500002B9802202F07F03042B01D12A280AD16C
:10356000521C0BF80300D2B201E0852A04D0491C9A
:1035700008780028E6D16AB102F07F0200200BF83B
:10358000020041A1584600F00AFA38B1012188F83A
:10359000001000224FF00008029B15E0002088F880
:1035A0000000F6E708F1010000F0FF0813F8010F32
:1035B000202801D02A2807D1184600F07DF92828B4
:1035C00002D02A2800D0C2461878282801D0002826
:1035D000E8D10299BAF1000F01D05144491C4FF0D3
:1035E00000084346087888B1282804D0292806D046
:1035F000222810D011E083B9641CE4B20DE063B955
:1036000024B1641E14F0FF0402D00DE04FF0010855
:10361000012F27D02FE04BB100234CB12C280CD028
:10362000202816D0282814D05AB110E00123F4E73E
:10363000202815D009F8010B12E00125521CD2B246
:1036400007E0052E03D20BF80600761CF6B26D1CBF
:10365000EDB2012C04D1022D02D103257F1CFFB253
:10366000491CBFE700200BF8060007A1684600F0E0
:1036700096F900B9002704980770002089F8000027
:1036800006B04046BDE8F08F766F69640000000028
:103690002DE9F04300248946304DB5B0214622463D
:1036A0006B18491CC9B29A760A29F9D302E010F8BE
:1036B000011F99B101782829F9D1461C4FF0010862
:1036C00033AA69463046FFF7C5FE06449DF8CC0094
:1036D00040B1012824D0FF2836D10BE0012035B0BD
:1036E000BDE8F0839DF8000070B334A9684600F08F
:1036F000EBF808B10220F2E7204600F031F8284448
:1037000034994162298B08FA04F08143298304200B
:1037100029198876641CE4B20A2C15D90320DEE747
:10372000684600F051F9471C204600F019F841198D
:103730006846243100F03FF9298B08FA04F0014370
:10374000281929838776E5E73078292801D00028D1
:10375000B6D189F800400020C1E7000080000020B9
:10376000024610B500200146054B05E05C18491CD7
:10377000A47EC9B22044C0B29142F7D310BD00006C
:1037800080000020094800680169C943CA07084948
:10379000D1F8F02004D14FF6FF731A44C1F8F0209D
:1037A000406A1044C1F8F00070470000B8030020E0
:1037B0008000002000EBC00101EB00104FF0FF3152
:1037C00001EB800010B581B24FF47A70FFF7A8F8D2
:1037D00001490120C87510BD80000020034601206A
:1037E00000E05843491EC9B2FBD2704707486FF04A
:1037F0000101026811610268090CD162C1600068B0
:10380000002141620248C0F8F0107047B803002060
:10381000800000202DE9F041164E3088010426D5A5
:103820001549C0B2154F00250D54B9681248884794
:1038300004000FD0104800F0D1F8012801D0040096
:1038400014D0012C09D0022C09D0032C09D0042C4F
:103850000CD108E0F868804708E009A004E00BA05C
:1038600002E00DA000E00FA0FCF7AEFD3580BDE842
:10387000F08100001600002074010020800000206C
:10388000BAAFCAFDB4EDCEF3210D0A00B2CECAFD27
:10389000B4EDCEF3210D0A00B2CECAFDCCABB6E03A
:1038A000210D0A00CEB4D5D2B5BDC6A5C5E4B5C4B8
:1038B000BAAFCAFD210D0A0010F8011F202901D15D
:1038C0000028F9D1C8B270472DE9F0430E46002414
:1038D0004FF00A082546014634600A78A2F1300309
:1038E000092B14D903782D2B01D02B2B00D174B1C7
:1038F000A2F14103052B0AD9582A05D012F0FF0F77
:1039000017D00120BDE8F083012C02D0F9E7412A4D
:1039100001D34FF0100802782D2A04D02B2A04D0AE
:10392000641CE4B203E0022500E00125401C491CB0
:10393000D3E70746B8F1100F01D084B112E0032C91
:1039400001D20220DEE73878302802D17878582872
:1039500001D00320D6E7A41EE4B2BF1C01E004207E
:10396000D0E70CB1641EE4B238780146303809283B
:1039700001D8814601E0A1F1370921464046FFF711
:103980002DFF326809FB0020306017F8011F002965
:10399000E7D1022D01D1404230600020B2E7027829
:1039A0000B789A4201D00120704712B1401C491C8B
:1039B000F5E70020704702780A700278002A02D0EA
:1039C000401C491CF7E77047002102781AB1491CD6
:1039D000C9B2401CF9E7084670470000F0B58DB049
:1039E00004461E2308AA6946FFF786FD09900028B1
:1039F00072D19DF82000271800253E4C8DF82050EC
:103A00009DF8200054F820106846FFF7C8FF38B131
:103A10009DF82000401CC0B28DF820000728EFD38D
:103A20009DF820000426344C072855D2DFE800F02A
:103A30000404395A605F5E0030A0FCF7C5FC30A07A
:103A4000FCF7C2FC3EA0FCF7BFFC4DA0FCF7BCFCA1
:103A50005BA0FCF7B9FC6AA0FCF7B6FC78A0FCF709
:103A6000B3FC86A0FCF7B0FC8BA0FCF7ADFC93A0E8
:103A7000FCF7AAFC97A0FCF7A7FC9CA0FCF7A4FC11
:103A8000A1A0FCF7A1FCA7A0FCF79EFCB3A0FCF74B
:103A90009BFCC0A0FCF798FCCBA0FCF795FCD7A042
:103AA0001BE016A0FCF790FCE4A0FCF78DFC8DF861
:103AB00020500BE0216806EBC0000958EFA0FCF78E
:103AC00083FC9DF82000401C8DF82000217D9DF88E
:103AD00020008142EED856E257E2FCF775FC002048
:103AE0000DB0F0BD05A0FCF76FFCCBE12CE20CE2C1
:103AF000EBE1000044000020800000200D0A0000DF
:103B00002D2D2D2D2D2D2D2D2D2D2D2D2D2D2D2DE5
:103B10002D2D2D2D2D2D2D2D55534D4152542056EB
:103B2000332E332D2D2D2D2D2D2D2D2D2D2D2D2DB8
:103B30002D2D2D2D2D2D2D2D2D2D2D200D0A00005F
:103B40002020202055534D415254CAC7D3C9414C5F
:103B500049454E54454BBFAAB7A2B5C4D2BBB8F62F
:103B6000C1E9C7C9B5C4B4AEBFDAB5F7CAD4BBA5FD
:103B7000BDBBD7E9BCFE2CCDA8B9FD200D0A0000C5
:103B8000CBFC2CC4E3BFC9D2D4CDA8B9FDB4AEBF21
:103B9000DAD6FACAD6B5F7D3C3B3CCD0F2C0EFC3E6
:103BA000E6B5C4C8CEBACEBAAFCAFD2CB2A2D6B45E
:103BB000D0D02ED2F2B4CB2CC4E3BFC90D0A000082
:103BC000D2D4CBE6D2E2B8FCB8C4BAAFCAFDB5C411
:103BD000CAE4C8EBB2CECAFD28D6A7B3D6CAFDD771
:103BE000D62831302F3136BDF8D6C62CD6A7B3D65D
:103BF000B8BACAFD29A1A2D7D6B7FBB4AE0D0A0048
:103C0000A1A2BAAFCAFDC8EBBFDAB5D8D6B7B5C85E
:103C1000D7F7CEAAB2CECAFD292CB5A5B8F6BAAF51
:103C2000CAFDD7EEB6E0D6A7B3D63130B8F6CAE4AF
:103C3000C8EBB2CECAFD2CB2A2D6A7B3D60D0A00ED
:103C4000BAAFCAFDB7B5BBD8D6B5CFD4CABE2ED68B
:103C5000A7B3D6B2CECAFDCFD4CABEBDF8D6C6C9A8
:103C6000E8D6C3B9A6C4DC2CD6A7B3D6BDF8D6C651
:103C7000D7AABBBBB9A6C4DC2E0D0A00BCBCCAF5D2
:103C8000D6A7B3D63A7777772E6F70656E65647670
:103C90002E636F6D0D0A000055534D415254D3D021
:103CA00037B8F6CFB5CDB3C3FCC1EE28B1D8D0EB51
:103CB000D0A1D0B4293A0D0A000000003F3A2020DC
:103CC00020202020BBF1C8A1B0EFD6FAD0C5CFA2EA
:103CD0000D0A000068656C703A202020BBF1C8A175
:103CE000B0EFD6FAD0C5CFA20D0A00006C6973748C
:103CF0003A202020BFC9D3C3B5C4BAAFCAFDC1D0D2
:103D0000B1ED0D0A0A00000069643A20202020204D
:103D1000BFC9D3C3BAAFCAFDB5C44944C1D0B1ED20
:103D20000D0A0A006865783A20202020B2CECAFD2C
:103D30003136BDF8D6C6CFD4CABE2CBAF3B8FABF56
:103D4000D5B8F12BCAFDD7D6BCB4D6B4D0D0BDF807
:103D5000D6C6D7AABBBB0D0A0A0000006465633A49
:103D600020202020B2CECAFD3130BDF8D6C6CFD437
:103D7000CABE2CBAF3B8FABFD5B8F12BCAFDD7D654
:103D8000BCB4D6B4D0D0BDF8D6C6D7AABBBB0D0A3A
:103D90000A00000072756E74696D653A312CBFAA15
:103DA000C6F4BAAFCAFDD4CBD0D0BCC6CAB13B3082
:103DB0002CB9D8B1D5BAAFCAFDD4CBD0D0BCC6CA05
:103DC000B13B0D0A0A000000C7EBB0B4D5D5B3CCA7
:103DD000D0F2B1E0D0B4B8F1CABDCAE4C8EBBAAF12
:103DE000CAFDC3FBBCB0B2CECAFDB2A2D2D4BBD80E
:103DF000B3B5BCFCBDE1CAF82E0D0A002D2D2D2D4A
:103E00002D2D2D2D2D2D2D2D2D2D2D2D2D2D2D2DE2
:103E10002D2D2D2D2D2D414C49454E54454B2D2DED
:103E20002D2D2D2D2D2D2D2D2D2D2D2D2D2D2D2DC2
:103E30002D2D2D2D2D2D2D200D0A00002D2D2D2D5C
:103E40002D2D2D2D2D2D2D2D2D2D2D2D2D2D2D2DA2
:103E50002D2D2D2D2DBAAFCAFDC7E5B5A52D2D2DC4
:103E60002D2D2D2D2D2D2D2D2D2D2D2D2D2D2D2D82
:103E70002D2D2D2D2D2D2D2D200D0A0025730D0AF4
:103E80000000000042A0FCF79FFA8DF8205016E0D9
:103E9000216806EBC0000BAB08580AAA6946FFF779
:103EA00043FB9DF82010206850F83120694648A057
:103EB000FCF78AFA9DF82000401C8DF82000217D37
:103EC0009DF820008142E3D85DE0AFF2D030FCF7EE
:103ED0007BFA08AA69463846FFF7BCFA9DF820002D
:103EE000002843D109A96846FFF7EEFC8DF82000B1
:103EF00010B104283AD102E03AA009991CE03CA094
:103F0000FCF762FA0120E0753DE038A0FCF75CFAAE
:103F100008AA69463846FFF79DFA9DF8200028BB9D
:103F200009A96846FFF7D0FC8DF8200010B10428DD
:103F30001CD104E033A00999FCF746FA23E034A031
:103F4000FCF742FAE5751EE028A0FCF73DFA08AA46
:103F500069463846FFF77EFA9DF8200030B909A976
:103F60006846FFF7B1FC8DF8200008B10220B7E5E4
:103F7000099810F0FF0084F8EC0001D029A000E0BF
:103F80002FA0FCF721FA19A0A7E50120A8E5000061
:103F90002D2D2D2D2D2D2D2D2D2D2D2D2D2D2D2D51
:103FA0002D2D2D2D2D2D2D2D2DBAAFCAFD2049449F
:103FB000202D2D2D2D2D2D2D2D2D2D2D2D2D2D2D3E
:103FC0002D2D2D2D2D2D2D2D2D2D2D2D200D0A009E
:103FD00025732069642069733A0D0A3058253038FA
:103FE000580D0A004845583A305825580D0A000027
:103FF0003136BDF8D6C6B2CECAFDCFD4CABE210D69
:104000000A0000004445433A256C750D0A00000083
:104010003130BDF8D6C6B2CECAFDCFD4CABE210D4E
:104020000A00000052756E2054696D652043616C72
:1040300063756C6174696F6E204F4E0D0A0000004D
:1040400052756E2054696D652043616C63756C61B7
:1040500074696F6E204F46460D0A0000016070477C
:104060004FF04070E1EE100A7047000000000000C1
:104070000000010203040607080900000000010215
:104080000304303132333435363738394142434412
:1040900045464030580030313233343536373839C0
:1040A00061626364656640307800040000080000C7
:1040B0000000000000020001000010007561727431
:1040C0005F6765745F7069642E616E676C655069C7
:1040D000644B693A25642C20756172745F6765745E
:1040E0005F7069642E616E676C655069644B703AED
:1040F00025640D0A202020202020202020202020A0
:10410000756172745F6765745F7069642E69715060
:1041100069644B693A25642C20756172745F676528
:10412000745F7069642E69715069644B703A2564DC
:104130000D0A202020202020202020202020756112
:1041400072745F6765745F7069642E73706565640F
:104150005069644B693A25642C756172745F6765B8
:10416000745F7069642E73706565645069644B7028
:104170003A25640D0A0000006F75747075747374CD
:104180006174652E74656D70657261747572653ADF
:1041900025642C206F757470757473746174652E4A
:1041A00069713A25642C206F75747075747374612D
:1041B00074652E73706565643A25642C206F757480
:1041C00070757473746174652E656E636F64657267
:1041D0003A25640D0A000000756172745F676574AA
:1041E0005F656E636F6465722E656E636F64657282
:1041F0003A25642C20756172745F6765745F656E23
:10420000636F6465722E656E636F64657252617769
:104210003A25640D0A202020202020202020202064
:1042200020756172745F6765745F656E636F646546
:10423000722E656E636F6465724F66667365743A5D
:1042400025640D0A000000002D2D2D3E74686520A8
:104250006D6F746F725F6E756D3A25642C72656157
:104260006C5F656E636F6465723A256C6C642C706C
:1042700072655F656E636F6465723A25642D2D2DDE
:104280003C20656E647072696E66646174610D0ACB
:10429000000000003F0000006465630069640000E6
:1042A00072756E74696D650068656C700000000061
:1042B0006C6973740000000068657800766F69644B
:1042C0002077726974655F61646472287533322087
:1042D000616464722C7533322076616C29000000B1
:1042E00075333220726561645F616464722875336E
:1042F0003220616464722900766F69642064656CA1
:1043000061795F6D7328753136206E6D73290000F9
:10431000766F69642064656C61795F7573287533A5
:1043200032206E7573290000484300080000002009
:1043300074010000C4010008A443000874010020B7
:10434000E408000020020008111324F432010217CF
:10435000102A401D011F1394421B08A8041AB00420
:104360001A9C041AB8041A98041AA004132D301BBE
:1043700008E008135D401B08BC08131D2E1B08F83D
:10438000081A39081310432308601420B53714089D
:1043900061311B08F504131538230804092176013F
:0443A000BA0000005F
:040000050800018965
:00000001FF
