:020000040800F2
:10000000E009002099020008D14B0008CD1E00082D
:100010009D470008050B000845540008000000003B
:10002000000000000000000000000000A54D0008D6
:10003000050C000800000000D34B00083D4E0008EE
:10004000B3020008B3020008B3020008B3020008BC
:10005000B3020008B3020008B3020008B3020008AC
:10006000B3020008B3020008B3020008B30200089C
:10007000B3020008B3020008B3020008B30200088C
:10008000B3020008B3020008B3020008B30200087C
:10009000B3020008B3020008B3020008B30200086C
:1000A000B3020008B3020008B3020008B30200085C
:1000B000B3020008B3020008954E0008B30200081E
:1000C000B3020008B3020008B3020008B30200083C
:1000D000B302000819540008B3020008B302000874
:1000E000B3020008B3020008B3020008B30200081C
:1000F000B3020008B3020008B3020008B30200080C
:10010000B3020008B3020008B3020008B3020008FB
:10011000B3020008B3020008B3020008B3020008EB
:10012000B3020008B3020008B3020008B3020008DB
:10013000B3020008B3020008B3020008B3020008CB
:10014000B3020008B3020008B3020008B3020008BB
:10015000B3020008B3020008B3020008B3020008AB
:10016000B3020008B3020008B3020008B30200089B
:10017000B3020008B3020008B30200080000000048
:10018000B3020008B302000800F002F800F075F8AE
:100190000AA090E8000C82448344AAF10107DA45E2
:1001A00001D100F06AF8AFF2090EBAE80F0013F0BF
:1001B000010F18BFFB1A43F001031847E069000064
:1001C000006A00000A444FF0000C10F8013B13F0E5
:1001D000070408BF10F8014B1D1108BF10F8015BA0
:1001E000641E05D010F8016B641E01F8016BF9D193
:1001F00013F0080F1EBF10F8014BAD1C0C1B09D1EA
:100200006D1E58BF01F801CBFAD505E014F8016B5B
:1002100001F8016B6D1EF9D59142D6D370470000ED
:100220000023002400250026103A28BF78C1FBD8FF
:10023000520728BF30C148BF0B60704703681B0AD4
:1002400028BF41F08001642900F01A81752900F06F
:100250001781782900F08E81E42900F04D8163290F
:1002600000F0E483732900F0E983002070471FB594
:1002700006F056FB1FBD10B510BD00F011FC114675
:10028000FFF7F5FF05F034F900F02FFC03B4FFF79A
:10029000F2FF03BC05F0EEF8094880470948004723
:1002A000FEE7FEE7FEE7FEE7FEE7FEE7FEE7FEE726
:1002B000FEE7FEE704480549054A064B7047000083
:1002C000414E000889010008E0030020E0090020F9
:1002D000E0050020E0050020704753EA020C00F022
:1002E00069802DE9F04B4FF00006002B1FBFB3FAD9
:1002F00083F503FA05F424FA05F65E4012BF1643AF
:10030000B2FA82F502FA05F4C5F120051EBF22FA01
:1003100005FC44EA0C04203556EA044C4FEA144428
:1003200018BF641C4FF000084FF00009904271EBB9
:10033000030C39D3002919BFB1FA81F701FA07F686
:10034000B0FA80F700FA07F6C7F120071EBF20FABF
:1003500007FC46EA0C062037B6FBF4FCA7EB0507C2
:10036000103F07F01F0BCBF120060CFA0BFB2CFA09
:1003700006F644BFB3460026202FA4BF5E464FF0CA
:10038000000B5BEA060C08BF4FF0010B19EB0B09E1
:10039000ABFB027C48EB0608C01B06FB02CC0BFB48
:1003A00003CC71EB0C01C1E70B46024641464846BF
:1003B000BDE8F08B13B54FF000004FF00001AFF334
:1003C0000080BDE81C4070470FB4044910B503AA73
:1003D000029800F037FB10BC5DF814FB18000020F9
:1003E00070B5044685690068C10601D5302600E075
:1003F0002026C00707D070BDD4E9012130469047C0
:10040000206A401C20626D1EF6D570BD70B5044692
:1004100085690078C00707D170BDD4E9012120208B
:100420009047206A401C20626D1EF6D570BD70B5E5
:100430000C460546012A05D02878800600D5EA69D1
:10044000002302E0012305E05B1C934202D2E05C42
:100450000028F9D1A869E618C01AA861286A1844CA
:1004600028622846FFF7BCFF04E0D5E9012114F813
:10047000010B9047B442F8D32846FFF7C7FF70BD81
:100480002DE9F0410646002410687529314616A56D
:1004900010D0AFF30080002802DA404213A507E035
:1004A00031688A0701D512A502E0490704D511A5D4
:1004B000012401E0AFF3008000210A2206F12407A5
:1004C00009E0B0FBF2FCB0FBF2F302FB1C003030A1
:1004D00078541846491C0028F3D123462A46304652
:1004E000BDE8F04100F03FBA000000002D00000020
:1004F0002B000000200000002DE9F0418046D21DB5
:1005000022F007020025D2E90002F52915A614D031
:10051000011E72F1000106DA0023D0EB030063EB49
:10052000020211A608E0D8F800108B0701D50FA62B
:1005300002E0490701D50EA601251146002408F165
:10054000240704E000F0CAF930323A55641C50EA3E
:100550000102F7D12B46324621464046BDE8F04124
:1005600000F001BA000000002D0000002B00000088
:100570002000000070B504460D4621461068AFF318
:1005800000802188090502D50F4A7A4402E00E4A0C
:100590007A440E32002104F1240305E000F00F0636
:1005A0000009965D5E54491C0028F7D1207800238D
:1005B000000704D5702D02D009B102231132204664
:1005C000BDE8704000F0CFB9B46300002DE9F05FE2
:1005D000894604464FF0000ADFF874B1FB44C0F8C6
:1005E00020A02046E1688847002874D0252806D03E
:1005F000D4E901219047206A401C2062F1E70026DF
:100600005F462046E16888472028054607DB312DF4
:1006100005D2781910F8200C08B10643F1E7B007AD
:1006200001D526F00406C4F81CA00027C4F818A0C1
:100630002A2D09D0284604F016FF38B304EB8708AA
:10064000303DC8F8185019E059F8041B204604EB57
:1006500087029161E1688847012F054618D1E0695A
:10066000002820DA26F020061DE0D8F8180000EB5C
:10067000800005EB40003038C8F818002046E168DB
:100680008847054604F0EFFE0028EED1012F0AD07E
:100690002E2D08D12046E16888477F1C0546022F91
:1006A00046F02006C4DBA069002803DA404246F089
:1006B0000106A061F00701D026F010066C2D0BD0CA
:1006C000682D09D04C2D39D06A2D35D0742D35D0F8
:1006D0007A2D33D016E038E0E1682F46204688476F
:1006E000B842054609D16C2F26D04FF48060E168EE
:1006F000064320468847054604E06C2F1AD04FF485
:10070000807006430DB3A5F14100192802D82035A9
:1007100046F400664A462946204626604E46FFF7C4
:100720008DFD80B101280BD0F61D26F0070000F1E9
:10073000080956E74020E4E78020D8E70020D6E704
:1007400006F104094DE7284652E7206ABDE8F09F0C
:100750008A630000032A40F2308010F0030C00F09E
:10076000158011F8013BBCF1020F624498BF11F8EB
:1007700001CB00F8013B38BF11F8013BA2F10402A4
:1007800098BF00F801CB38BF00F8013B11F003031C
:1007900000F02580083AC0F0088051F8043B083A80
:1007A00051F804CBA0E80810F5E7121D5CBF51F822
:1007B000043B40F8043BAFF30080D20724BF11F89C
:1007C000013B11F801CB48BF11F8012B24BF00F801
:1007D000013B00F801CB48BF00F8012B704710B572
:1007E000203AC0F00B80B1E81850203AA0E8185029
:1007F000B1E81850A0E81850BFF4F5AF5FEA027CEA
:1008000024BFB1E81850A0E8185044BF18C918C058
:10081000BDE810405FEA827C24BF51F8043B40F8F9
:10082000043B08BF7047D20728BF31F8023B48BFDE
:1008300011F8012B28BF20F8023B48BF00F8012B1C
:1008400070474FF000020429C0F0128010F0030C32
:1008500000F01B80CCF1040CBCF1020F18BF00F8B3
:10086000012BA8BF20F8022BA1EB0C0100F00DB862
:100870005FEAC17C24BF00F8012B00F8012B48BFC0
:1008800000F8012B70474FF0000200B51346944664
:100890009646203922BFA0E80C50A0E80C50B1F1D8
:1008A0002001BFF4F7AF090728BFA0E80C5048BFEC
:1008B0000CC05DF804EB890028BF40F8042B08BF8A
:1008C000704748BF20F8022B11F0804F18BF00F886
:1008D000012B7047704770477047704730B5B0F1D3
:1008E0000A024FEA900E71F100034EEA817EB0EBEE
:1008F0000E0061EB91014FEA101E4EEA017E10EBF3
:100900000E0041EB11114FEA102E4EEA016E10EB72
:100910000E0041EB11214FEA104E4EEA014E10EB52
:100920000E0041EB1141401841F100014FEAD000A7
:1009300040EA41704FEAD10110EB80054FEA810493
:1009400044EA907444EB01046D1944EB0404521B17
:10095000A3414FF0000348BF0A3200D530BD401C10
:1009600041F1000130BD2DE9F0470D469946924610
:10097000044600F124080168880604D5E06921F0E6
:100980001001216000E00120A84201DD471B00E0CA
:100990000027A1697A1902EB0900081AA0612078E2
:1009A000C00602D42046FFF71BFD002608E0D4E96C
:1009B00001211AF806009047206A401C761C20622C
:1009C0004E45F4DB2078C0060AD52046FFF708FD27
:1009D00006E0D4E9012130209047206A401C2062C3
:1009E000381EA7F10107F4DC07E0D4E9012118F86B
:1009F00005009047206A401C2062281EA5F10105D1
:100A0000F3DC2046FFF702FD2078000602D5022025
:100A1000BDE8F0870120FBE710B5436913B1AFF3E0
:100A2000008001E0FFF703FD012010BD127800F106
:100A300024010A7000224A700122EDE711684FF08C
:100A4000FF32E9E7074B70B50D467B4400F011F823
:100A50000446284600F020F810B14FF0FF3070BD7A
:100A6000204670BD8F4A000001694A1C0261087867
:100A7000704700B58FB0CDE90131002105910549DE
:100A80007944CDE9031011466846FFF79FFD0FB08A
:100A900000BD0000E5FFFFFF007B00F08000704715
:100AA000754600F02BF8AE4605006946534620F027
:100AB0000700854618B020B5FFF7FCFBBDE82040D5
:100AC0004FF000064FF000074FF000084FF0000B0A
:100AD00021F00701AC46ACE8C009ACE8C009ACE8BD
:100AE000C009ACE8C0098D46704710B50446AFF3A5
:100AF00000802046BDE81040FFF7C8BB00487047A3
:100B00007C030020FEE700002DE9F04387B0114C84
:100B100007460F480E9E9046894620601D461C22BF
:100B20006946201DFFF75BFE211D002081E8E003E0
:100B300020766076A0760121E176207760772046E6
:100B400000F064FA002800D0012007B0BDE8F0836F
:100B500000640040C80200207CB50C460546002118
:100B60000E4800F0CFF9012801D0F1207CBD6B4682
:100B70000B4A0021094800F0D5F908B1F2207CBDEC
:100B8000074A287869461060002002E00B5C235475
:100B9000401C13698342F9D8107C7CBDC802002038
:100BA0002003002030B58BB00024012503940E20D3
:100BB0000494CDE90850CDE90645059400940194CC
:100BC000029469460E4800F017F900B1FEE70C48A0
:100BD00000F0D4FA00B1FEE70221094800F096F8CF
:100BE00000B1FEE7064840F221312830C46084603D
:100BF000C0E900150221016104750BB030BD000091
:100C0000C80200207047000001A0FFF7DDBB000014
:100C100043414E5F4572726F725F48616E646C65EE
:100C2000722073656E64696E67206661696C6564C5
:100C30000D0A000070B5B3F5804F05D06FF070411C
:100C400040F82210002070BD50F82230084C23409C
:100C5000D1E9004544EA05148D688E892D0245EAE4
:100C6000064589692C430C431C4340F82240E9E7C0
:100C70000000F0CFF0B50C6850F82450114A154030
:100C8000D1E90123D1E903671A433E4332434E6958
:100C900032438E693243CE6932430E6A32434E6A22
:100CA00032438E6A3243CE6A3243CE6B096B324393
:100CB0000A432A43082B01D142F0400240F8242085
:100CC0000020F0BD8000F0FF30B500EB82004268EC
:100CD000D1E9003443EA04138C688D89240244EA84
:100CE000054423430C8A084D02F0404205EB0454AE
:100CF00023430C7D6D0105EB0464896923430B4399
:100D000013434360002030BD0000F0FF90F8202026
:100D1000012A07D0022A05D0416A41F480214162AC
:100D200001207047006842690A4342610020704711
:100D3000F0B590F820500468A468012D05D0022D6C
:100D400003D0416A41F4802153E014F0406F01D197
:100D5000E5004BD5C4F30164022C03D9416A41F488
:100D6000000146E00125A5401D608B684FF4C07569
:100D70009BB1CE6833434E6843EAC603066805EB71
:100D80000417F3514FF4C273076803EB04130E69A1
:100D9000FE50097D012905D009E00E88CB6843EAA1
:100DA0004653EBE70168CE5846F48076CE50117971
:100DB000D2F805304FF4C67641EA0323016806EB0A
:100DC00004168B511178D2F801204FF4C47341EA14
:100DD0000221026803EB0413D150006805EB0411F3
:100DE000425842F0010242500020F0BD416A41F4F5
:100DF000001141620120F0BD10B590F82020012AB9
:100E000007D0022A05D0416A41F4802141620120C5
:100E100010BD3B48D0F8002242F00102C0F8002289
:100E2000D0F8002222F47C52C0F80022D0F8002230
:100E30004B6A42EA0322C0F800220A7D02F01F0337
:100E400001229A40D0F81C329343C0F81C32CB697F
:100E5000B3B9D0F80C329343C0F80C328C894B688C
:100E600064F31F434C6900EBC404C4F840320C899E
:100E70000B6864F31F434C6900EBC404C4F84432AC
:100E8000CB69012B16D1D0F80C321343C0F80C32C9
:100E90000C884B6864F31F434C6900EBC404C4F82E
:100EA00040320C89CB6864F31F434C6900EBC404E7
:100EB000C4F844328B69002BD0F804320ED01343AF
:100EC000C0F804320B69002BD0F8143208D0134359
:100ED000C0F81432096A012904D008E09343EFE70F
:100EE0009343F5E7D0F81C121143C0F81C12D0F858
:100EF000001221F00101C0F80012002010BD000016
:100F0000006400400246002092F82030012B01D0FE
:100F1000022B04D1106819B1006900F0030070477A
:100F2000C068FAE730B590F82040012C05D0022CBB
:100F300003D0416A41F480215DE00468002955D066
:100F40002469A40754D04FF4D874056804EB011445
:100F50002D5915F00405956005682D594ED0ED0802
:100F6000556005682C59C4F34004D4604FF4DA741A
:100F7000056804EB01142D5905F00F05156105688E
:100F80002D59C5F30725956105682C59240C54612A
:100F90004FF4DC72046802EB0112A4581C70046860
:100FA000A458240A5C700468A458240C9C7004683B
:100FB000A258120EDA704FF4DE72046802EB0112CE
:100FC000A4581C710468A458240A5C710468A458CD
:100FD000240C9C710468A258120EDA71006881B169
:100FE000016941F020010161002030BDE468A8E7FB
:100FF000416A41F400114162012030BD6D0D156060
:10100000AFE7C16841F02001C160EDE770B50400B1
:1010100003D094F8200010B104E0012070BD2046F8
:1010200000F082F82068016821F00201016000F000
:10103000CFF90546052604E000F0CAF9401B0A284E
:1010400011D8206840688007F6D42068016841F014
:101050000101016000F0BCF905460BE000F0B8F9B1
:10106000401B0A2806D9606A40F40030606284F8A8
:101070002060D2E720684068C007EFD0207E0128BA
:10108000206801683DD021F080010160607E012868
:101090002068016838D021F040010160A07E01285D
:1010A0002068016833D021F020010160E07E012832
:1010B000206801682ED041F010010160207F0128D6
:1010C0002068016829D021F008010160607F0128B3
:1010D0002068016824D021F004010160D4E90201F4
:1010E0000843D4E90412114308436168491E0843C8
:1010F0002168C86100206062012084F8200000207F
:1011000070BD41F08001C0E741F04001C5E741F00A
:101110002001CAE721F01001CFE741F00801D4E730
:1011200041F00401D9E70000124800B5016887B01A
:1011300041F000710160006800F0007005900D48FA
:101140001038016841F0010101600068012100F0E0
:10115000010005904FF4C05000900220CDE901013C
:101160000390092004906946034800F045F807B051
:1011700000BD0000403802400000024070B5044647
:1011800090F82000012804D0606A40F400206062DA
:1011900017E0022084F820002068016821F0010196
:1011A000016000F015F905460DE000F011F9401B53
:1011B0000A2808D9606A40F400306062052084F88B
:1011C0002000012070BD20684068C007EDD160623A
:1011D00070BD90F83510022903D0802141650120AF
:1011E0007047052180F835100068016821F0010181
:1011F00001600020704700002DE9F84FDFF88C9166
:10120000002209F1040A0AF1040B4FF00F080BF158
:10121000040E01260B6896403340B34271D14C68EE
:10122000022C01D0122C11D1D40800EB84073D6AA6
:101230005407E40E08FA04FC25EA0C05D1F810C0A6
:101240000CFA04FC4CEA050CC7F820C007685400EF
:10125000032591F804C0A5400CF0030CAF430CFA31
:1012600004FC4CEA070CC0F800C04F68012F05D001
:10127000022F03D0112F01D0122F11D18768D1F87E
:101280000CC0AF430CFA04FC4CEA070CC0F808C0D1
:101290004768B7430E79C6F3001696403E43466052
:1012A000C668AE438D68A5403543C5604C68E40010
:1012B00065D5374C256845F480452560246822F0C3
:1012C000030504F480440094324C2E19D6F80878B3
:1012D0009407250F08FA05F4A7432F4CA04201D12B
:1012E000002424E02D4CA04201D101241FE02C4C0D
:1012F000A04201D102241AE02A4CA04202D10324C8
:1013000015E03CE0284CA04201D104240FE0274C1A
:10131000A04201D105240AE0254CA04201D10624B7
:1013200005E0244CA04201D1072400E00824AC4091
:101330003C43C6F80848D9F800404D464E689C43E7
:10134000F60300D51C432C60DAF8004055464E6881
:101350009C43B60300D51C432C60DBF800405D467F
:101360004E689C43F60200D51C432C60DEF800401A
:1013700075464E689C43B60200D51C432C60521C37
:10138000102AFFF446AFBDE8F88F0000003C014092
:101390004438024000300140000002400004024096
:1013A00000080240000C02400010024000140240FD
:1013B00000180240001C02400AB181617047090414
:1013C000FBE7000001480068000C7047002004E0C3
:1013D00001488068704700000400002002488168CE
:1013E000027811448160704704000020094810B55C
:1013F000016841F400710160016841F4806101609D
:10140000052000F057F80F2000F006F800F024F84F
:10141000002010BD003C024070B50D4D04464FF455
:101420007A712878B1FBF0F00A490968B1FBF0F055
:1014300000F058FB48B9102C07D200222146501E5C
:1014400000F018F800206C6070BD012070BD000035
:1014500004000020000000207047002809DB00F095
:101460001F02012191404009800000F1E020C0F8F6
:1014700000117047F0B40E4B1B68C3F30223C3F195
:101480000704042C00D904241D1D072D01D20023BC
:1014900000E0DB1E012606FA04F56D1E0D409D409E
:1014A0009E40761E164045EA0601F0BC03F0CBBF15
:1014B0000CED00E0064A00F0070110684FF6FF034C
:1014C000184040EA012003490843106070470000BB
:1014D0000CED00E00000FA052DE9F0470D46040090
:1014E00065D0DFF81491D9F80000EFB200F00F00DA
:1014F000A84207D289F80070D9F8000000F00F0068
:10150000A84254D120683D4E810712D5400703D52B
:10151000306840F4E05030602078000703D5306830
:1015200040F4604030603068A16820F0F00008436B
:1015300030602078C0072DD0304960680839012814
:1015400012D0022813D0032811D009688907002976
:101550002DDA316821F0030101433160FFF738FFD4
:10156000804641F2883A0EE009688903EFE709688E
:101570008901ECE7FFF72CFFA0EB0801514502D9E8
:101580000320BDE8F0873068616800F00C00B0EB24
:10159000810FEFD1D9F80010484601F00F01A942A0
:1015A00007D90770006800F00F00A84201D00120A1
:1015B000E7E72078400705D53068E16820F4E0507F
:1015C000084330602078000706D53068216920F490
:1015D000604040EAC100306000F036F83168084AE7
:1015E000C1F30311515CC840064908600F20FFF7A2
:1015F00013FF0020C5E70000003C0240083802400D
:101600002A690008000000200448054900680968AC
:10161000044AC1F38221515CC84070470000002099
:10162000083802403A69000804480549006809681A
:10163000044AC1F34231515CC840704700000020A9
:10164000083802403A690008154810B5006810F0E3
:101650000C01144813D0431004290FD008290ED1CF
:101660000F4C241F216801F03F022168490207D571
:101670002068C0F38810A0FB030106E0184610BDE7
:101680002168C1F38811A1FB00010023FEF725FEAC
:101690002168C1F30141491C4900B0FBF1F010BDC4
:1016A000083802400024F4002DE9F84F040073D0FC
:1016B0002078BD4DC00748D0BB4808300168C1F351
:1016C0008101012908D00068C0F3810002280AD1F5
:1016D000281D0068400206D52868800335D560685B
:1016E0000028E4D031E06068B0F5803F10D0B0F55C
:1016F000A02F286810D020F480302860286820F4BB
:10170000802028606068A0B1FFF762FE06460CE00A
:10171000286840F48030F4E740F480202860F7E740
:10172000FFF756FE801B642872D828688003F7D51F
:101730000BE0FFF74DFE064604E0FFF749FE801B75
:101740006428F1D828688003F7D42078DFF85C9209
:1017500080074FF0000A3ED593480830016811F029
:101760000C0F09D00068C0F3810002280BD18E480D
:10177000001D0068400206D42868800715D5E0687F
:10178000012809D111E0E068B8B10120C9F80000D2
:10179000FFF71EFE064605E003E1FFF719FE801B7A
:1017A0000228C1D828688007F7D52868216920F069
:1017B000F80040EAC10028600DE0C9F800A0FFF77A
:1017C00007FE064604E0FFF703FE801B02281FD831
:1017D00028688007F7D42078000722D5724F744913
:1017E0006069743770B101200860FFF7F1FD0646AB
:1017F00004E0FFF7EDFD801B022809D83868800758
:10180000F7D50EE0C1F800A0FFF7E2FD064605E0BF
:1018100081E0FFF7DDFD801B02287CD83868800757
:10182000F7D42078400769D5DFF87CB14FF0000885
:101830000BF1400BDBF80000C0000CD4DBF800100B
:1018400041F08051CBF80010DBF800004FF00108A8
:1018500000F080500090574F3868C0050FD43868AA
:1018600040F480703860FFF7B3FD064604E0FFF7F0
:10187000AFFD801B02284ED83868C005F7D54A4F07
:10188000A068703701280FD00528386810D020F0E4
:1018900001003860386820F004003860A068B0B1FA
:1018A000FFF796FD06460EE0386840F00100F4E7C9
:1018B00040F004003860F7E7FFF78AFD811B41F232
:1018C0008830814265D838688007F5D50DE0FFF78C
:1018D0007FFD064606E0FFF77BFD811B41F2883065
:1018E000814256D838688007F5D4B8F1000F05D08A
:1018F000DBF8001021F08051CBF80010A069C8B3CC
:10190000294908310968C1F38101022949D0022817
:10191000504607D000E03CE0C9F86000FFF758FDF2
:10192000044639E04F46C9F86000FFF751FD06460E
:1019300004E0FFF74DFD801B02282AD828688001AB
:10194000F7D4D4E907010843A16A1B4A490802EB0E
:101950000141626A41EA8211084394F82C1040EA7E
:1019600001611148001D016001203866FFF730FD5C
:10197000044605E013E0FFF72BFD001B022808D802
:1019800028688001F7D50AE0FFF722FD001B022836
:1019900002D90320BDE8F88F28688001F4D4002024
:1019A000F8E70120F6E70000003802400000474257
:1019B000800E4742007000400000FFFF70B51546E2
:1019C0000E46040003D094F8490010B107E001204E
:1019D00070BD002084F84800204600F01BF804F198
:1019E00008012068FFF746F93146A2682068FFF732
:1019F0006BF9D4E901022946236BFFF71BF9A168B3
:101A0000206850F8212042F0010240F821200020F7
:101A100070BD0000284810B5016886B041F0010192
:101A20000160006800F00100059023480838016853
:101A300041F008010160016801F0080105910168A9
:101A400041F010010160016801F010010591016889
:101A500041F020010160016801F020010591016859
:101A600041F0400101600068694600F040000590C7
:101A70004CF233700090022001900120029003206C
:101A800003900C2004900D48FFF7B6FB4FF68070D2
:101A9000009069460A48FFF7AFFB4FF4805469464F
:101AA00008480094FFF7A8FB694607480094FFF731
:101AB000A3FB06B010BD000038380240000C024005
:101AC0000010024000140240001802404FF0E021D4
:101AD0000428086903D020F004000861704740F032
:101AE0000400FAE710B5401EB0F1807F01D3012059
:101AF00010BD4FF0E02460610F21601703F0A3FCDC
:101B00000020A06107202061002010BD10B5040056
:101B100003D094F83D0010B107E0012010BD002073
:101B200084F83C00204600F00CF8022084F83D00C8
:101B3000211D206803F0C8F9012084F83D00002031
:101B400010BD70470168CA6842F00102CA600068AF
:101B5000816801F00701062903D0016841F0010105
:101B6000016000207047704710F8391F4078084323
:101B70007047000070B5026804461068D168536968
:101B800010F00F0F50D003F0010501F490763543AB
:101B90005DD0C20705D0CA0503D5E26B42F0010251
:101BA000E263420705D5DA0703D0E26B42F0020296
:101BB000E263820705D5DA0703D0E26B42F0040244
:101BC000E263020705D5DA0703D0E26B42F00802B0
:101BD000E263E26B002A33D0800604D5880602D582
:101BE000204603F015FA20684069E16BC0F38010CD
:101BF000090700D428B3204603F0FCF920684169A6
:101C000049061AD5416921F040014161606BA0B1DC
:101C10001B490165606BFFF7DCFA002810D0606B90
:101C2000016DBDE870400847830610D58B060ED5C0
:101C30002046BDE8704003F0EBB92046FFF793FF64
:101C400070BD2046FFF78FFF0020E06370BD0306E4
:101C500006D50B0604D52046BDE8704003F07ABBDC
:101C60004006F3D54806F1D5D168204621F0400161
:101C7000D160202184F8391000F027F970BD0000F0
:101C8000E54F000870B5040004D094F83900002531
:101C900010B106E0012070BD84F83850204600F0F5
:101CA00023F8242084F839002068C16821F4005109
:101CB000C160204603F0F8F92068016921F49041E1
:101CC00001612068416921F02A0141612068C168F1
:101CD00041F40051C160E563202084F8390084F8A4
:101CE0003A00002070BD000010B500681A4986B0A7
:101CF00088422FD11948016841F001010160006854
:101D000000F00100059015481430016841F0100101
:101D100001600068012100F0100005904FF4007090
:101D200000900220CDE90101039007200C4C0490A3
:101D300069462046FFF760FA211500916946204662
:101D4000FFF75AFA2520FFF788FB032211462520CA
:101D5000FFF790FB06B010BD001001403038024084
:101D60000000024090F83A30202B22D1F9B1F2B1B4
:101D700090F83830012B1CD081628285C285002109
:101D8000C163222280F83A2080F838100168CA68BE
:101D900042F48072CA6001684A6942F001024A61F5
:101DA0000068C16841F02001C16000207047012037
:101DB000704702207047000030B500681149884222
:101DC0000CD1114A5088010408D411464404097802
:101DD0004FF0000306D52F2901D0538030BD40F4C9
:101DE00000400DE02A2909D0C0F30D04074D401C26
:101DF00080B229555080C728EFD830BD40F48040CC
:101E0000508030BD0010014014000020600100200F
:101E10002DE9F843044690F839001E4617460D4652
:101E2000202850D1A5B19FB194F8380001284AD09C
:101E3000012084F838004FF00008C4F83C802120CD
:101E400084F83900FFF7C4FAA7848146E78426E0C6
:101E50000120BDE8F883E08C401EE084A0684B467A
:101E6000B0F5805F4FF000024FF0800120460096F1
:101E700003D003F0A0FAE8B90DE003F09CFAC8B96A
:101E800028882168C0F308004860206908B16D1CEB
:101E900005E0AD1C03E0216815F8010B4860E08CFB
:101EA0000028D8D14B46002240212046009603F05E
:101EB00082FA08B10320CCE7202084F8390084F8A6
:101EC00038800020C5E70220C3E77047FEE7000026
:101ED00070B5144886B00025016841F00101016029
:101EE000016801F001010591016841F010010160F4
:101EF0000068032400F01000059002200126CDE9BF
:101F00000204CDE9006569460748FFF775F91C2012
:101F100003948DE8610069460448FFF76DF906B047
:101F200070BD000030380240000002400010024046
:101F300070B506460A4800240188458820464D436E
:101F4000214602F059FB02F0F1FBB1B24FF0D8404C
:101F500002E0A0F88010641CAC42FAD370BD00000F
:101F6000B80200202DE9F04F334B2C24194698710C
:101F70002A2589882B2645F2105B4FF4305E4FF4FA
:101F800048774FF0F00949F2413A4FF4A07845F212
:101F9000103C4FF4F07258B1A3F80080A3F80290FF
:101FA000514501D0614529D11C815D819E8139E077
:101FB000A3F80090A3F80280514501D0614508D1F3
:101FC0001C815D819E81614531D1A3F800805A80DA
:101FD0002DE0594508D1A3F808E04FF42850588166
:101FE0004FF42C50988106E0A1F5C85063381ED1FB
:101FF0001C815E819D811A805F8018E0594508D15F
:10200000A3F808E04FF4285058814FF42C509881E1
:1020100006E0A1F5C850633804D11C815D819E8122
:102020001F805A80614502D11A80A3F80280BDE862
:10203000F04F002002F004BAB80200202DE9F04F62
:10204000FF4895B00024016841F00201016000687A
:102050004FF0010900F00200139003204FF4004AF2
:10206000CDE91090CDE90EA90EA9F648FFF7C4F806
:10207000F548F6494FF02045C0E900510621C0E976
:1020800002141021C0E9044184610902C461C0E95D
:1020900009418900C0E90B4189014463C0E90E414F
:1020A0000F20CDE907043C2009900920CDE9000468
:1020B00008200D94029003946A4607A90694E2480A
:1020C000FFF77CFC322003F0E1F9D32002F022FB81
:1020D00002F084F9DC4A5032908002F07FF990805F
:1020E00002F07CF94FF6FF7B0BEA0020908002F0B3
:1020F00075F9918845F210360843A0F51341908098
:1021000045F2105441F66317413949D0D42002F00A
:1021100001FB02F063F9908002F060F9908002F018
:102120005DF90BEA0020D846908002F057F99188BB
:1021300008439080B04233D04FF45A4002F0EAFA9C
:1021400002F04CF990804FF45B4002F0E3FA02F0A9
:1021500045F908EA002090804FF45C4002F0DAFA7A
:1021600002F03CF9918808439080504501D1948059
:1021700016E0A04214D0A12002F0CCFA02F02EF911
:10218000908002F02BF908EA0020908002F026F9F6
:1021900091880843A0F5AE419080613900D19780C5
:1021A00092469188AAA0FEF70FF9BAF8040049F206
:1021B000413840457ED1CF2002F0ACFA002002F039
:1021C0009DFAC12002F09AFA302002F097FAED2031
:1021D00002F0A0FA642002F091FA032002F08EFAD5
:1021E000122002F08BFA812002F088FAE82002F037
:1021F00091FA852002F082FA102002F07FFA7A200C
:1022000002F07CFACB2002F085FA392002F076FA4F
:102210002C2002F073FA002002F070FA342002F051
:102220006DFA022002F06AFAF72002F073FA202019
:1022300002F064FAEA2002F06DFA002002F05EFA81
:10224000002002F05BFAC02002F064FA1B2002F0CA
:1022500055FAC12002F05EFA012002F04FFAC520C3
:1022600002F058FA302002F049FA302002F046FA23
:10227000C72002F04FFAB72002F040FA362002F0F1
:1022800049FA482002F03AFA3A2002F043FA55207F
:1022900002F034FAB12002F03DFA002002F02EFAEA
:1022A0001A2002F02BFAB62002F034FA0A2002F0CB
:1022B00025FA00E095E0A22002F020FAF22002F0D8
:1022C00029FA002002F01AFA262002F023FA01204F
:1022D00002F014FAE02002F01DFA0F2002F00EFACC
:1022E0002A2002F00BFA282002F008FA082002F057
:1022F00005FA0E2002F002FA082002F0FFF954203D
:1023000002F0FCF9A92002F0F9F9432002F0F6F9F5
:102310000A2002F0F3F90F2002F0F0F9002002F099
:10232000EDF9002002F0EAF9002002F0E7F90020C0
:1023300002F0E4F9E12002F0EDF9002002F0DEF90C
:10234000152002F0DBF9172002F0D8F9072002F07F
:10235000D5F9112002F0D2F9062002F0CFF92B2096
:1023600002F0CCF9562002F0C9F93C2002F0C6F97F
:10237000052002F0C3F9102002F0C0F90F2002F08E
:10238000BDF93F2002F0BAF93F2002F0B7F90F2063
:1023900002F0B4F92B2002F0BDF9002002F0AEF9F2
:1023A000002002F0ABF9012002F0A8F93F2002F072
:1023B000A5F92A2002F0AEF9002002F09FF90020D2
:1023C00002F09CF9002002F099F9EF2002F096F952
:1023D000112002F09FF9782003F058F8292001F02D
:1023E00010BFB0427ED1ED2002F094F9012002F03E
:1023F00085F9FE2002F082F9EE2002F08BF9DE2052
:1024000002F07CF9212002F079F9F12002F082F942
:10241000012002F073F9DF2002F07CF9102002F0B5
:102420006DF9C42002F076F98F2002F067F9C6201A
:1024300002F070F9002002F061F9E22010E00000E3
:10244000303802400004024068020020040100A06D
:10245000204C43442049443A25780D0A00000000EE
:1024600002F04CF9E22002F049F9E22002F046F9CC
:10247000BF2002F04FF9AA2002F040F9B02002F08C
:1024800049F90D2002F03AF9002002F037F90D2049
:1024900002F034F9002002F031F9112002F02EF997
:1024A000002002F02BF9192002F028F9002002F098
:1024B00025F9212002F022F9002002F01FF92D2039
:1024C00002F01CF9002002F019F93D2002F016F983
:1024D000002002F013F95D2002F010F9002002F054
:1024E0000DF900E0FDE35D2002F008F9002002F0A4
:1024F00005F9B12002F00EF9802002F0FFF800206B
:1025000002F0FCF88B2002F0F9F8002002F0F6F857
:10251000962002F0F3F8002002F0F0F8B22002F06A
:10252000F9F8002002F0EAF8002002F0E7F80220B3
:1025300002F0E4F8002002F0E1F8032002F0DEF8F7
:10254000002002F0DBF8B32002F0E4F8002002F0F3
:10255000D5F8002002F0D2F8002002F0CFF80020D9
:1025600002F0CCF8002002F0C9F8002002F0C6F812
:10257000002002F0C3F8002002F0C0F8002002F0B2
:10258000BDF8002002F0BAF8002002F0B7F80020F1
:1025900002F0B4F8002002F0B1F8002002F0AEF82A
:1025A000002002F0ABF8002002F0A8F8002002F0B2
:1025B000A5F8002002F0A2F8002002F09FF8002009
:1025C00002F09CF8002002F099F8002002F096F842
:1025D000002002F093F8002002F090F8B42002F0FE
:1025E00099F88B2002F08AF8002002F087F89620F4
:1025F00002F084F8002002F081F8A12002F07EF8B9
:10260000002002F07BF8B52002F084F8022002F0EE
:1026100075F8002002F072F8032002F06FF8002035
:1026200002F06CF8042002F069F8002002F066F86D
:10263000B62002F06FF8002002F060F8002002F0EF
:102640005DF8B72002F066F8002002F057F800208D
:1026500002F054F83F2002F051F8002002F04EF84A
:102660005E2002F04BF8002002F048F8642002F0EF
:1026700045F8002002F042F88C2002F03FF80020DC
:1026800002F03CF8AC2002F039F8002002F036F8F5
:10269000DC2002F033F8002002F030F8702002F065
:1026A0002DF8002002F02AF8902002F027F80020F0
:1026B00002F024F8EB2002F021F8002002F01EF8CE
:1026C000DC2002F01BF8002002F018F8B82002F01D
:1026D00021F8002002F012F8002002F00FF800208C
:1026E00002F00CF8002002F009F8002002F006F8D1
:1026F000002002F003F8002002F000F8002001F0B2
:10270000FDFFBA2002F006F8242001F0F7FF0020B8
:1027100001F0F4FF002001F0F1FF002001F0EEFFD6
:10272000C12001F0F7FF202001F0E8FF002001F0B8
:10273000E5FF542001F0E2FF002001F0DFFFFF2061
:1027400001F0DCFF002001F0D9FFC22001F0E2FF20
:102750000A2001F0D3FF002001F0D0FF042001F097
:10276000CDFF002001F0CAFFC32001F0D3FF3C20C1
:1027700001F0C4FF002001F0C1FF3A2001F0BEFFCC
:10278000002001F0BBFF392001F0B8FF002001F06C
:10279000B5FF372001F0B2FF002001F0AFFF3C2071
:1027A00001F0ACFF002001F0A9FF362001F0A6FFE8
:1027B000002001F0A3FF322001F0A0FF002001F073
:1027C0009DFF2F2001F09AFF002001F097FF2C20A1
:1027D00001F094FF002001F091FF292001F08EFF0D
:1027E000002001F08BFF262001F088FF002001F07F
:1027F00085FF242001F082FF002001F07FFF2420CC
:1028000001F07CFF002001F079FF232001F076FF2A
:10281000002001F073FF3C2001F070FF002001F068
:102820006DFF362001F06AFF002001F067FF3220C3
:1028300001F064FF002001F061FF2F2001F05EFF36
:10284000002001F05BFF2C2001F058FF002001F078
:1028500055FF292001F052FF002001F04FFF2620F4
:1028600001F04CFF002001F049FF242001F046FF59
:10287000002001F043FF242001F040FF002001F080
:102880003DFF232001F03AFF002001F037FFC42074
:1028900001F040FF622001F031FF002001F02EFF27
:1028A000052001F02BFF002001F028FF842001F01B
:1028B00025FF002001F022FFF02001F01FFF002083
:1028C00001F01CFF182001F019FF002001F016FF95
:1028D000A42001F013FF002001F010FF182001F0E8
:1028E0000DFF002001F00AFF502001F007FF00203B
:1028F00001F004FF0C2001F001FF002001F0FEFEBA
:10290000172001F0FBFE002001F0F8FE952001F0F9
:10291000F5FE002001F0F2FEF32001F0EFFE0020B2
:1029200001F0ECFEE62001F0E9FE002001F0E6FEF9
:10293000C52001F0EFFE322001F0E0FE002001F0A2
:10294000DDFE442001F0DAFE002001F0D7FE652014
:1029500001F0D4FE002001F0D1FE762001F0CEFE81
:10296000002001F0CBFE882001F0C8FE002001F01D
:10297000C5FEC62001F0CEFE202001F0BFFE0020E3
:1029800001F0BCFE172001F0B9FE002001F0B6FEF8
:10299000012001F0B3FE002001F0B0FEC72001F0DD
:1029A000B9FE002001F0AAFE002001F0A7FE0020E1
:1029B00001F0A4FE002001F0A1FEC82001F0AAFE53
:1029C000002001F09BFE002001F098FE002001F0A5
:1029D00095FE002001F092FEC92001F09BFE002030
:1029E00001F08CFE002001F089FE002001F086FE3F
:1029F000002001F083FE002001F080FE002001F0A5
:102A00007DFE002001F07AFE002001F077FE00201C
:102A100001F074FE002001F071FE002001F06EFE56
:102A2000002001F06BFE002001F068FE002001F0A4
:102A300065FE002001F062FE002001F05FFEE02054
:102A400001F068FE162001F059FE002001F056FE4C
:102A50001C2001F053FE002001F050FE212001F067
:102A60004DFE002001F04AFE362001F047FE002016
:102A700001F044FE462001F041FE002001F03EFE40
:102A8000522001F03BFE002001F038FE642001F0EE
:102A900035FE002001F032FE7A2001F02FFE0020EA
:102AA00001F02CFE8B2001F029FE002001F026FE13
:102AB000992001F023FE002001F020FEA82001F063
:102AC0001DFE002001F01AFEB92001F017FE0020C3
:102AD00001F014FEC42001F011FE002001F00EFEF2
:102AE000CA2001F00BFE002001F008FED22001F008
:102AF00005FE002001F002FED92001F0FFFD0020BC
:102B000001F0FCFDE02001F0F9FD002001F0F6FDF0
:102B1000F32001F0F3FD002001F0F0FDE12001F0D1
:102B2000F9FD162001F0EAFD002001F0E7FD1C2070
:102B300001F0E4FD002001F0E1FD222001F0DEFDC6
:102B4000002001F0DBFD362001F0D8FD002001F06F
:102B5000D5FD452001F0D2FD002001F0CFFD52202F
:102B600001F0CCFD002001F0C9FD642001F0C6FD9C
:102B7000002001F0C3FD7A2001F0C0FD002001F02B
:102B8000BDFD8B2001F0BAFD002001F0B7FD9920BA
:102B900001F0B4FD002001F0B1FDA82001F0AEFD70
:102BA000002001F0ABFDB92001F0A8FD002001F0EC
:102BB000A5FDC42001F0A2FD002001F09FFDCA2068
:102BC00001F09CFD002001F099FDD22001F096FD5E
:102BD000002001F093FDD82001F090FD002001F0CD
:102BE0008DFDE02001F08AFD002001F087FDF3203B
:102BF00001F084FD002001F081FDE22001F08AFD5A
:102C0000052001F07BFD002001F078FD0B2001F094
:102C100075FD002001F072FD1B2001F06FFD00200A
:102C200001F06CFD342001F069FD002001F066FD2B
:102C3000442001F063FD002001F060FD4F2001F011
:102C40005DFD002001F05AFD612001F057FD0020DC
:102C500001F054FD792001F051FD002001F04EFDFE
:102C6000882001F04BFD002001F048FD972001F085
:102C700045FD002001F042FDA62001F03FFD0020AF
:102C800001F03CFDB72001F039FD002001F036FDD8
:102C9000C22001F033FD002001F030FDC72001F01B
:102CA0002DFD002001F02AFDD12001F027FD00209C
:102CB00001F024FDD62001F021FD002001F01EFDD1
:102CC000DD2001F01BFD002001F018FDF32001F0D4
:102CD00015FD002001F012FDE32001F01BFD052091
:102CE00000E00CE301F00AFD002001F007FD0A20DE
:102CF00001F004FD002001F001FD1C2001F0FEFCAC
:102D0000002001F0FBFC332001F0F8FC002001F072
:102D1000F5FC442001F0F2FC002001F0EFFC502013
:102D200001F0ECFC002001F0E9FC622001F0E6FC7F
:102D3000002001F0E3FC782001F0E0FC002001F02D
:102D4000DDFC882001F0DAFC002001F0D7FC9720A0
:102D500001F0D4FC002001F0D1FCA62001F0CEFC53
:102D6000002001F0CBFCB72001F0C8FC002001F0EE
:102D7000C5FCC22001F0C2FC002001F0BFFCC7204E
:102D800001F0BCFC002001F0B9FCD12001F0B6FC40
:102D9000002001F0B3FCD52001F0B0FC002001F0D0
:102DA000ADFCDD2001F0AAFC002001F0A7FCF3201F
:102DB00001F0A4FC002001F0A1FCE42001F0AAFC39
:102DC000012001F09BFC002001F098FC012001F0A3
:102DD00095FC002001F092FC022001F08FFC002005
:102DE00001F08CFC2A2001F089FC002001F086FC17
:102DF0003C2001F083FC002001F080FC4B2001F01E
:102E00007DFC002001F07AFC5D2001F077FC0020C1
:102E100001F074FC742001F071FC002001F06EFCE4
:102E2000842001F06BFC002001F068FC932001F08D
:102E300065FC002001F062FCA22001F05FFC002094
:102E400001F05CFCB32001F059FC002001F056FCBD
:102E5000BE2001F053FC002001F050FCC42001F022
:102E60004DFC002001F04AFCCD2001F047FC002081
:102E700001F044FCD32001F041FC002001F03EFCB5
:102E8000DD2001F03BFC002001F038FCF32001F0D4
:102E900035FC002001F032FCE52001F03BFC002075
:102EA00001F02CFC002001F029FC002001F026FCA0
:102EB000002001F023FC022001F020FC002001F0A2
:102EC0001DFC292001F01AFC002001F017FC3C2019
:102ED00001F014FC002001F011FC4B2001F00EFC6D
:102EE000002001F00BFC5D2001F008FC002001F047
:102EF00005FC742001F002FC002001F0FFFB84209F
:102F000001F0FCFB002001F0F9FB932001F0F6FB3F
:102F1000002001F0F3FBA22001F0F0FB002001F003
:102F2000EDFBB32001F0EAFB002001F0E7FBBE203F
:102F300001F0E4FB002001F0E1FBC42001F0DEFB26
:102F4000002001F0DBFBCD2001F0D8FB002001F0D8
:102F5000D5FBD32001F0D2FB002001F0CFFBDC2019
:102F600001F0CCFB002001F0C9FBF32001F0C6FB0F
:102F7000002001F0C3FBE62001F0CCFB112001F0A2
:102F8000BDFB002001F0BAFB342001F0B7FB0020AC
:102F900001F0B4FB562001F0B1FB002001F0AEFBC4
:102FA000762001F0ABFB002001F0A8FB772001F0B8
:102FB000A5FB002001F0A2FB662001F09FFB002092
:102FC00001F09CFB882001F099FB002001F096FBAA
:102FD000992001F093FB002001F090FBBB2001F051
:102FE0008DFB002001F08AFB992001F087FB002077
:102FF00001F084FB662001F081FB002001F07EFBE4
:10300000552001F07BFB002001F078FB552001F0FA
:1030100075FB002001F072FB452001F06FFB0020E2
:1030200001F06CFB432001F069FB002001F066FB1E
:10303000442001F063FB002001F060FBE72001F079
:1030400069FB322001F05AFB002001F057FB5520AC
:1030500001F054FB002001F051FB762001F04EFB03
:10306000002001F04BFB662001F048FB002001F03E
:1030700045FB672001F042FB002001F03FFB672089
:1030800001F03CFB002001F039FB872001F036FB0A
:10309000002001F033FB992001F030FB002001F00B
:1030A0002DFBBB2001F02AFB002001F027FB99201B
:1030B00001F024FB002001F021FB772001F01EFB32
:1030C000002001F01BFB442001F018FB002001F060
:1030D00015FB562001F012FB002001F00FFB23200E
:1030E00001F00CFB002001F009FB332001F006FB8E
:1030F000002001F003FB452001F000FB002001F05F
:10310000FDFAE82001F006FB002001F0F7FA0020AC
:1031100001F0F4FA992001F0F1FA002001F0EEFA42
:10312000872001F0EBFA002001F0E8FA882001F096
:10313000E5FA002001F0E2FA772001F0DFFA002042
:1031400001F0DCFA662001F0D9FA002001F0D6FA8D
:10315000882001F0D3FA002001F0D0FAAA2001F073
:10316000CDFA002001F0CAFABB2001F0C7FA002016
:1031700001F0C4FA992001F0C1FA002001F0BEFA72
:10318000662001F0BBFA002001F0B8FA552001F0EA
:10319000B5FA002001F0B2FA552001F0AFFA002094
:1031A00001F0ACFA442001F0A9FA002001F0A6FADF
:1031B000442001F0A3FA002001F0A0FA552001F00C
:1031C0009DFA002001F09AFAE92001F0A3FAAA2062
:1031D00001F094FA002001F091FA002001F08EFA3B
:1031E000002001F08BFA002001F094FAAA2001F0EF
:1031F00085FACF2001F08EFA002001F07FFA00203E
:1032000001F07CFA002001F079FA002001F076FA52
:10321000002001F073FA002001F070FA002001F0A4
:103220006DFA002001F06AFA002001F067FA002030
:1032300001F064FA002001F061FA002001F05EFA6A
:10324000002001F05BFA002001F058FA002001F0A4
:1032500055FA002001F052FA002001F04FFAF02058
:1032600001F058FA002001F049FA502001F046FA26
:10327000002001F043FA002001F040FA002001F0A4
:103280003DFAF32001F046FA002001F037FAF92068
:1032900001F040FA062001F031FA102001F02EFA78
:1032A000292001F02BFA002001F028FA3A2001F041
:1032B00031FA552001F022FA112001F02BFA642096
:1032C00002F0E4F8292001F025FA352001F022FA75
:1032D000002001F013FA512001F01CFAFF2001F048
:1032E0000DFA532001F016FA2C2001F007FA5520B0
:1032F00001F010FA822001F001FA2C20FDE3A04237
:103300007ED14FF470435521184601F019FAAA21D5
:103310004FF2010001F014FA52214FF2020001F0C5
:103320000FFA08214FF2030001F00AFA01214FF2CF
:10333000040001F005FA0D214FF4304001F000FACD
:103340000D214BF2010001F0FBF90D214BF20200BF
:1033500001F0F6F934214FF4364001F0F1F934214F
:103360004BF2016001F0ECF934214BF2026001F004
:10337000E7F90D214FF4314001F0E2F90D214BF254
:10338000011001F0DDF90D214BF2021001F0D8F926
:1033900034214FF4374001F0D3F934214BF201705E
:1033A00001F0CEF934214BF2027001F0C9F900218D
:1033B0004FF4324001F0C4F900214BF2012001F03A
:1033C000BFF900214BF2022001F0BAF924214FF499
:1033D000384001F0B5F924214BF6010001F0B0F9B5
:1033E00024214BF6020001F0ABF901214FF43F40DC
:1033F00001F0A6F90F214FF4334001F0A1F900E0EC
:10340000FEE30F214BF2013001F09AF90F214BF24C
:10341000023001F095F934214FF4394001F090F970
:1034200034214BF6011001F08BF934214BF60210D8
:1034300001F086F908214FF4354001F081F90821A7
:103440004BF2015001F07CF908214BF2025001F0DF
:1034500077F903214FF4424001F072F924214FF42F
:103460003A4001F06DF924214BF6012001F068F992
:1034700024214BF6022001F063F900214FF43C4077
:1034800001F05EF978214BF6014001F059F9002175
:103490004BF6024001F054F900214FF43D4001F099
:1034A0004FF978214BF6015001F04AF900214BF613
:1034B000025001F045F900214FF43E4001F040F97F
:1034C00064214BF6016001F03BF900214FF45140BB
:1034D00001F036F933214DF2011001F031F90021EC
:1034E0004DF2021001F02CF934214DF2031001F0DD
:1034F00027F900214DF2041001F022F93A214DF292
:10350000051001F01DF900214DF2061001F018F927
:103510004A214DF2071001F013F900214DF2081075
:1035200001F00EF95C214DF2091001F009F90021BA
:103530004DF20A1001F004F981214DF20B1001F057
:10354000FFF800214DF20C1001F0FAF8A6214DF21F
:103550000D1001F0F5F800214DF20E1001F0F0F819
:10356000E5214DF20F1001F0EBF801214DF21010A2
:1035700001F0E6F813214DF2111001F0E1F80121FC
:103580004DF2121001F0DCF854214DF2131001F04D
:10359000D7F801214DF2141001F0D2F882214DF23A
:1035A000151001F0CDF801214DF2161001F0C8F808
:1035B000CA214DF2171001F0C3F802214DF2181084
:1035C00001F0BEF800214DF2191001F0B9F8022106
:1035D0004DF21A1001F0B4F801214DF21B1001F068
:1035E000AFF802214DF21C1001F0AAF834214DF27F
:1035F0001D1001F0A5F802214DF21E1001F0A0F8F7
:1036000067214DF21F1001F09BF802214DF22010AE
:1036100001F096F884214DF2211001F091F8022179
:103620004DF2221001F08CF8A4214DF2231001F08C
:1036300087F802214DF2241001F082F8B7214DF2F3
:10364000251001F07DF802214DF2261001F078F8E6
:10365000CF214DF2271001F073F802214DF228100E
:1036600001F06EF8DE214DF2291001F069F8022117
:103670004DF22A1001F064F8F2214DF22B1001F006
:103680005FF802214DF22C1001F05AF8FE214DF2A4
:103690002D1001F055F803214DF22E1001F050F8D5
:1036A00010214DF22F1001F04BF803214DF2301094
:1036B00001F046F833214DF2311001F041F80321B9
:1036C0004DF2321001F03CF86D214DF2331001F053
:1036D00037F800214FF4524001F032F833214DF217
:1036E000012001F02DF800214DF2022001F028F810
:1036F00034214DF2032001F023F800214DF2042083
:1037000001F01EF83A214DF2052001F019F80021D0
:103710004DF2062001F014F84A214DF2072001F085
:103720000FF800214DF2082001F00AF85C214DF25B
:10373000092001F005F800214DF20A2001F000F8FF
:1037400081214DF20B2000F0FBFF00214DF20C20F7
:1037500000F0F6FFA6214DF20D2000F0F1FF002150
:103760004DF20E2000F0ECFFE5214DF20F2000F0AD
:10377000E7FF01214DF2102000F0E2FF13214DF28E
:10378000112000F0DDFF01214DF2122000F0D8FFE2
:1037900054214DF2132000F0D3FF01214DF21420EB
:1037A00000F0CEFF82214DF2152000F0C9FF01216B
:1037B0004DF2162000F0C4FFCA214DF2172000F090
:1037C000BFFF02214DF2182000F0BAFF00214DF298
:1037D000192000F0B5FF02214DF21A2000F0B0FFD1
:1037E00001214DF21B2000F0ABFF02214DF21C2005
:1037F00000F0A6FF34214DF21D2000F0A1FF0221B0
:103800004DF21E2000F09CFF67214DF21F2000F0BA
:1038100097FF02214DF2202000F092FF84214DF20B
:10382000212000F08DFF02214DF2222000F088FFC0
:10383000A4214DF2232000F083FF02214DF2242029
:1038400000F07EFFB7214DF2252000F079FF022124
:103850004DF2262000F074FFCF214DF2272000F01A
:103860006FFF02214DF2282000F06AFFDE214DF2A9
:10387000292000F065FF02214DF22A2000F060FFB0
:10388000F2214DF22B2000F05BFF02214DF22C20A3
:1038900000F056FFFE214DF22D2000F051FF0321D4
:1038A0004DF22E2000F04CFF10214DF22F2000F0A1
:1038B00047FF03214DF2302000F042FF33214DF24B
:1038C000312000F03DFF03214DF2322000F038FF9F
:1038D0006D214DF2332000F033FF00214FF45340AF
:1038E00000F02EFF33214DF2013000F029FF0021BE
:1038F0004DF2023000F024FF34214DF2033000F08D
:103900001FFF00214DF2043000F01AFF3A214DF262
:10391000053000F015FF00214DF2063000F010FFD9
:103920004A214DF2073000F00BFF00214DF2083024
:1039300000F006FF5C214DF2093000F001FF00218C
:103940004DF20A3000F0FCFE81214DF20B3000F008
:10395000F7FE00214DF20C3000F0F2FEA6214DF2F0
:103960000D3000F0EDFE00214DF20E3000F0E8FECB
:10397000E5214DF20F3000F0E3FE01214DF2103051
:1039800000F0DEFE13214DF2113000F0D9FE0121CE
:103990004DF2123000F0D4FE54214DF2133000F0FD
:1039A000CFFE01214DF2143000F0CAFE82214DF20B
:1039B000153000F0C5FE01214DF2163000F0C0FEBA
:1039C000CA214DF2173000F0BBFE02214DF2183033
:1039D00000F0B6FE00214DF2193000F0B1FE0221D8
:1039E0004DF21A3000F0ACFE01214DF21B3000F018
:1039F000A7FE02214DF21C3000F0A2FE34214DF250
:103A00001D3000F09DFE02214DF21E3000F098FEA8
:103A100067214DF21F3000F093FE02214DF220305D
:103A200000F08EFE84214DF2213000F089FE02214B
:103A30004DF2223000F084FEA4214DF2233000F03C
:103A40007FFE02214DF2243000F07AFEB7214DF2C4
:103A5000253000F075FE02214DF2263000F070FE98
:103A6000CF214DF2273000F06BFE02214DF22830BD
:103A700000F066FEDE214DF2293000F061FE0221E9
:103A80004DF22A3000F05CFEF2214DF22B3000F0B6
:103A900057FE02214DF22C3000F052FEFE214DF275
:103AA0002D3000F04DFE03214DF22E3000F048FE87
:103AB00010214DF22F3000F043FE03214DF2303043
:103AC00000F03EFE33214DF2313000F039FE03218B
:103AD0004DF2323000F034FE6D214DF2333000F003
:103AE0002FFE00214FF4544000F02AFE33214DF206
:103AF000014000F025FE002100E082E34DF202408B
:103B000000F01EFE34214DF2034000F019FE0021AA
:103B10004DF2044000F014FE3A214DF2054000F051
:103B20000FFE00214DF2064000F00AFE4A214DF240
:103B3000074000F005FE00214DF2084000F000FEB5
:103B40005C214DF2094000F0FBFD00214DF20A40DE
:103B500000F0F6FD81214DF20B4000F0F1FD002157
:103B60004DF20C4000F0ECFDA6214DF20D4000F0AE
:103B7000E7FD00214DF20E4000F0E2FDE5214DF29F
:103B80000F4000F0DDFD01214DF2104000F0D8FDA6
:103B900013214DF2114000F0D3FD01214DF21240EE
:103BA00000F0CEFD54214DF2134000F0C9FD01217B
:103BB0004DF2144000F0C4FD82214DF2154000F09A
:103BC000BFFD01214DF2164000F0BAFDCA214DF2B1
:103BD000174000F0B5FD02214DF2184000F0B0FD95
:103BE00000214DF2194000F0ABFD02214DF21A40C8
:103BF00000F0A6FD01214DF21B4000F0A1FD00E008
:103C000002E302214DF21C4000F09AFD34214DF2F6
:103C10001D4000F095FD02214DF21E4000F090FD88
:103C200067214DF21F4000F08BFD02214DF2204034
:103C300000F086FD84214DF2214000F081FD02213B
:103C40004DF2224000F07CFDA4214DF2234000F013
:103C500077FD02214DF2244000F072FDB7214DF2B4
:103C6000254000F06DFD02214DF2264000F068FD78
:103C7000CF214DF2274000F063FD02214DF2284094
:103C800000F05EFDDE214DF2294000F059FD0221D9
:103C90004DF22A4000F054FDF2214DF22B4000F08D
:103CA0004FFD02214DF22C4000F04AFDFE214DF265
:103CB0002D4000F045FD03214DF22E4000F040FD67
:103CC00010214DF22F4000F03BFD03214DF230401A
:103CD00000F036FD33214DF2314000F031FD03217B
:103CE0004DF2324000F02CFD6D214DF2334000F0DA
:103CF00027FD00214FF4554000F022FD33214DF205
:103D0000015000F01DFD00214DF2025000F018FDA1
:103D100034214DF2035000F013FD00214DF2045008
:103D200000F00EFD3A214DF2055000F009FD002192
:103D30004DF2065000F004FD4A214DF2075000F00C
:103D4000FFFC00214DF2085000F0FAFC5C214DF21E
:103D5000095000F0F5FC00214DF20A5000F0F0FC93
:103D600081214DF20B5000F0EBFC00214DF20C5084
:103D700000F0E6FCA6214DF20D5000F0E1FC002120
:103D80004DF20E5000F0DCFCE5214DF20F5000F03A
:103D9000D7FC01214DF2105000F0D2FC13214DF25E
:103DA000115000F0CDFC01214DF2125000F0C8FC82
:103DB00054214DF2135000F0C3FC01214DF2145078
:103DC00000F0BEFC82214DF2155000F0B9FC01213B
:103DD0004DF2165000F0B4FCCA214DF2175000F01D
:103DE000AFFC02214DF2185000F0AAFC00214DF268
:103DF000195000F0A5FC02214DF21A5000F0A0FC71
:103E000001214DF21B5000F09BFC02214DF21C5091
:103E100000F096FC34214DF21D5000F091FC02217F
:103E20004DF21E5000F08CFC67214DF21F5000F047
:103E300087FC02214DF2205000F082FC84214DF2DB
:103E4000215000F07DFC02214DF2225000F078FC60
:103E5000A4214DF2235000F073FC02214DF22450B6
:103E600000F06EFCB7214DF2255000F069FC0221F4
:103E70004DF2265000F064FCCF214DF2275000F0A7
:103E80005FFC02214DF2285000F05AFCDE214DF279
:103E9000295000F055FC02214DF22A5000F050FC50
:103EA000F2214DF22B5000F04BFC02214DF22C5030
:103EB00000F046FCFE214DF22D5000F041FC0321A4
:103EC0004DF22E5000F03CFC10214DF22F5000F02E
:103ED00037FC03214DF2305000F032FC33214DF21B
:103EE000315000F02DFC03214DF2325000F028FC3F
:103EF0006D214DF2335000F023FC00214FF4564069
:103F000000F01EFC33214DF2016000F019FC00218D
:103F10004DF2026000F014FC34214DF2036000F019
:103F20000FFC00214DF2046000F00AFC3A214DF232
:103F3000056000F005FC00214DF2066000F000FC79
:103F40004A214DF2076000F0FBFB00214DF20860B2
:103F500000F0F6FB5C214DF2096000F0F1FB00215E
:103F60004DF20A6000F0ECFB81214DF20B6000F095
:103F7000E7FB00214DF20C6000F0E2FBA6214DF2C0
:103F80000D6000F0DDFB00214DF20E6000F0D8FB6B
:103F9000E5214DF20F6000F0D3FB01214DF21060DE
:103FA00000F0CEFB13214DF2116000F0C9FB01219E
:103FB0004DF2126000F0C4FB54214DF2136000F08A
:103FC000BFFB01214DF2146000F0BAFB82214DF2DB
:103FD000156000F0B5FB01214DF2166000F0B0FB5A
:103FE000CA214DF2176000F0ABFB02214DF21860C0
:103FF00000F0A6FB00214DF2196000F0A1FB0221A8
:104000004DF21A6000F09CFB01214DF21B6000F0A4
:1040100097FB02214DF21C6000F092FB34214DF21F
:104020001D6000F08DFB02214DF21E6000F088FB48
:1040300067214DF21F6000F083FB02214DF22060EA
:1040400000F07EFB84214DF2216000F079FB02211B
:104050004DF2226000F074FBA4214DF2236000F0C9
:104060006FFB02214DF2246000F06AFBB7214DF294
:10407000256000F065FB02214DF2266000F060FB38
:10408000CF214DF2276000F05BFB02214DF228604A
:1040900000F056FBDE214DF2296000F051FB0221B9
:1040A0004DF22A6000F04CFBF2214DF22B6000F043
:1040B00047FB02214DF22C6000F042FBFE214DF245
:1040C0002D6000F03DFB03214DF22E6000F038FB27
:1040D00010214DF22F6000F033FB03214DF23060D0
:1040E00000F02EFB33214DF2316000F029FB03215B
:1040F0004DF2326000F024FB6D214DF2336000F090
:104100001FFB5521184600F01BFBAA214FF20100AE
:1041100000F016FB52214FF2020000F011FB0821C3
:104120004FF2030000F00CFB00214FF2040000F0FE
:1041300007FBCC214FF4314000F002FB00214BF291
:10414000011000F0FDFA05214FF4364000F0F8FAB6
:1041500070214FF4374000F0F3FA70214BF20170F8
:1041600000F0EEFA01214FF4384000F0E9FA0321A3
:104170004BF6010000F0E4FA03214BF6020000F0D8
:10418000DFFA03214BF6030000F0DAFA02214FF4C4
:104190003C4000F0D5FA00214BF6014000F0D0FA87
:1041A00000214BF6024000F0CBFAD0214FF44940F9
:1041B00000F0C6FA02214CF6011000F0C1FA5021BD
:1041C0004CF6021000F0BCFA50214CF6031000F03F
:1041D000B7FA50214CF6041000F0B2FA00214FF467
:1041E000545000F0ADFA55214FF4685000F0A8FA91
:1041F0004FF4885000F08EFA782001F055F94FF412
:10420000245000F087FAB9E0B842FCD1E22000F077
:1042100081FA1D2000F072FA022000F06FFA0420EB
:1042200000F06CFA642001F03FF9E02000F072FA2F
:10423000012000F063FA0A2001F028F9E02000F0E4
:1042400069FA032000F05AFA0C2001F01FF901204E
:1042500000F060FA0A2001F019F9E62000F05AFA9D
:104260002F2000F04BFAFF2000F048FAFF2000F06A
:1042700045FAB02000F04EFA202000F03FFA00206E
:1042800000F03CFA032000F039FA40F21F3000F051
:1042900035FA012000F032FA40F2DF1000F02EFA79
:1042A000002000F02BFAB42000F034FA042000F0D3
:1042B00025FA40F21F4000F021FA002000F01EFA1B
:1042C0002E2000F01BFA002000F018FA002000F069
:1042D00015FA002000F012FA002000F00FFAB620C4
:1042E00000F018FA022000F009FA4FF4037000F011
:1042F00005FA002000F002FA172000F0FFF915205F
:1043000000F0FCF9002000F0F9F9002000F0F6F9C7
:10431000F02000F0FFF9032000F0F0F9292000F070
:10432000F9F9D02000F0F6F9002000F0E7F9BE20FE
:1043300000F0F0F9052000F0E1F9FE2000F0DEF9D0
:10434000012000F0DBF9002000F0D8F9002000F097
:10435000D5F9002000F0D2F9B82000F0DBF90320F5
:1043600000F0CCF9012000F0C9F9BA2000F0D2F930
:10437000012000F0C3F9642000F03AF8BAF8040014
:10438000404505D0B04203D0A04201D0B84217D179
:10439000D5F81C0120F00F00C5F81C01D5F81C0150
:1043A00020F47060C5F81C01D5F81C0140F0030032
:1043B000C5F81C01D5F81C0140F40070C5F81C01BB
:1043C0000020FDF7CFFD0449C1F8BC925846FDF727
:1043D000AFFD15B0BDE8F08F0080404208B54FF04A
:1043E000D840B0F88000ADF80000BDF8000008BD6E
:1043F00010B50246BE2000F08DF9052000F07EF9D0
:10440000104602F07CF99FED0C1B53EC112B02F0CF
:1044100089F902F047F980B200F070F9012000F04C
:104420006DF9FF2000F06AF9002000F067F9BDE89F
:104430001040002000F062B9666666666666044059
:10444000F0B56C4D00232946AA79898841F663149A
:10445000012A01D01AB11BE0A14202D118E0A14209
:1044600016D1082814D2DFE800F00406080A0C0E62
:10447000101206200CE007200AE0042008E00520C6
:1044800006E0012004E0002002E0032000E002201A
:10449000A1F5134745F2103245F21056413F05D0C1
:1044A000914203D0B14201D0A14277D1082812D263
:1044B000DFE800F0110406080A0C0E1080230AE061
:1044C000402308E0C02306E0202304E0602302E04C
:1044D000A02300E0E023B14202D14FF4585000E0A5
:1044E0003620914205D0B14203D0A14201D043F021
:1044F0000803194600F024F9AA88A2420AD09806B7
:104500002888698802D5884202D303E0884201D90D
:10451000298068806889B24241D100F0FBF8002010
:1045200000F0ECF86889401C80B200F0F3F800203D
:1045300000F0E4F86889801C80B200F0EBF828886D
:10454000401EC0F30F2000F0D9F86889C01C80B26B
:1045500000F0E0F82878401EC0B200F0CFF8A8893B
:1045600000F0D8F8002000F0C9F8A889401C80B2FB
:1045700000F0D0F8002000F0C1F8A889801C80B2BB
:1045800000F0C8F86888401EC0F30F2000F0B6F8AD
:10459000A889C01C80B200F0BDF822E028E000F03D
:1045A000B9F8002000F0AAF8002000F0A7F8288849
:1045B000401EC0F30F2000F0A1F82878401EC0B2C2
:1045C00000F09CF8A88900F0A5F8002000F096F80B
:1045D000002000F093F86888401EC0F30F2000F020
:1045E0008DF8A878BDE8F040401EC0B200F086B853
:1045F000F0BD0000B8020020F0B53F4D0C46024669
:10460000060AA9882846270A4089A1F51343413B99
:1046100028D0A1F5A643103B24D0A1F5C853633B95
:104620002FD0A1F5AA43103B64D100F073F83046B7
:1046300000F064F86889401C80B200F06BF8D0B2DA
:1046400000F05CF8A88900F065F8384600F056F8EC
:10465000A889401C80B200F05DF8E0B2BDE8F040EF
:1046600000F04CB800F056F8304600F047F8D0B2F1
:1046700000F044F8A88900F04DF8384600F03EF804
:10468000EBE7A97929B300F045F8304600F036F899
:10469000D0B200F033F82888401EC0F30F2000F09D
:1046A0002DF82878401EC0B200F028F8A88900F044
:1046B00031F8384600F022F8E0B200F01FF86888C0
:1046C000401EC0F30F2000F019F8A878401EC0B2B9
:1046D000C4E72988891A491E8AB200F01BF8002015
:1046E00000F00CF8002000F009F8100A00F006F8BD
:1046F000D0B2D9E7F0BD0000B802002001B5BDF886
:104700000000ADF80000BDF800004FF0D841A1F85E
:10471000800008BD01B5BDF80000ADF80000BDF88F
:1047200000004FF0D841A1F87E0008BD03484FF0CB
:10473000D8410089A1F87E0070470000B80200202F
:104740004FF0D84222F87E0F51807047114810B5C3
:10475000016886B041F02001016000680E4C00F055
:10476000200005904FF4C06000900120019002905D
:104770000320039069462046FCF73EFD01225102CA
:104780002046FCF719FE012291022046FCF714FE98
:1047900006B010BD3038024000140240FEE70000B1
:1047A00070B586B00021244A0091019102910391D5
:1047B000224BD16091601B680C4618441060117543
:1047C0000820106181208DF800008DF801108DF80F
:1047D00002101A4B8DF8031001911B1D6A461649F1
:1047E0001748FCF7A5FA10B11648FBF7EDFD02A932
:1047F00004A8FCF7B1F909281BD29DF8101012A0EB
:10480000FBF7E2FD6E4602AD16A0295DFBF7DCFD6D
:10481000285D315D884203D014A0FBF7D5FD03E08D
:10482000641CE4B2082CEFD3082C02D113A0FBF7D0
:10483000CBFD06B070BD0000080300201C00002066
:10484000C8020020100C000843414E69643A3078D9
:104850002532782C20526563656976652064617421
:1048600061203A00253032782000000073656E64C4
:10487000206661696C21200D0A00000073656E647A
:10488000207375636365737321200D0A00000000B7
:104890002DE9F0470A4692B0014606A8FBF75AFFF9
:1048A00006A975A0FBF790FD9DF81D009DF81E1050
:1048B00000EB800001EB40019DF81C00642210FB1E
:1048C00002F29DF81B0000EB4003C3EBC01002EBAB
:1048D000C00008449DF81A1040F2712211FB02F149
:1048E00000EB011068499DF8232044189DF8220030
:1048F0004FEAE47A00EB800002EB40029DF82100D1
:10490000642310FB03F39DF8200000EB4005C5EB8A
:10491000C01003EBC00010449DF81F2040F271232B
:1049200012FB03F200EB021045189DF827009DF8DA
:10493000282000EB800002EB40039DF826004FEAA0
:10494000E579642210FB02F29DF8250000EB400699
:10495000C6EBC01002EBC00018449DF8242040F2C2
:10496000712312FB03F200EB021046189DF82C0095
:104970009DF82D2000EB800002EB40029DF82B00FB
:104980004FEAE678642310FB03F39DF82A0000EB5E
:104990004007C7EBC01003EBC00010449DF829206E
:1049A00040F2712312FB03F200EB021008449DF861
:1049B00018209DF819104FEAE07CCDF814C002963B
:1049C00002EB82024FF6F053CDE9038003EB420283
:1049D0001144CDE9005989B20F46224653462BA017
:1049E000FBF7F2FC062F1AD2DFE807F01903091CC7
:1049F0002A2E2A46E1B2684600F03CFE2AE0E0B2E8
:104A0000304900F055F92F4801798378C2788DE854
:104A10000E004379027841782B48FBF7D5FC12B0A1
:104A2000BDE8F0872749E0B2891D00F0D3F825489A
:104A3000801D8388428801882448FBF7C5FCEEE787
:104A4000E0B2FFF7ADFEEAE73346AAB2E1B268464C
:104A500000F040F8142269460CA8FBF7C0FEBDF830
:104A60003A000090BDF93830BDF936209DF830107D
:104A70001748FBF7A9FCD2E76D6F746F725F6F7018
:104A8000656E25730D0A0000B0DCF7FF0D0A49447E
:104A90003A25642C64617461303A256C6C642C6432
:104AA000617461313A256C6C642C64617461323AD2
:104AB000256C6C642C64617461333A256C6C640DF4
:104AC0000A000000240000207C690008986A0008A1
:104AD000386A0008F0B58BB0054600202E4E0090D5
:104AE0000190029003902D4FF060B0603F68044643
:104AF00039443160307508213161A4218DF80010EE
:104B00008DF801008DF80220100A8DF803008DF851
:104B10000430180A8DF80500180C8DF80600180EE0
:104B20001E4B8DF807001B1D6A4631461C48FCF7DA
:104B3000FFF810B11B48FBF747FC02A909A8FCF7D6
:104B40000BF8092810D29DF8241017A0FBF73CFCA5
:104B500002AE1CA0315DFBF737FC641CE4B2082CEC
:104B6000F7D31AA0FBF730FC9DF809008DF8100070
:104B7000BDF80A00ADF81600BDF80C00ADF818003D
:104B8000BDF80E00ADF81A00122204A92846FBF762
:104B9000E1FD0BB0F0BD0000080300201C00002068
:104BA000C8020020100C000843414E69643A307876
:104BB0002532782C205265636569766520646174BE
:104BC00061203A0025303278200000000D0A0000F4
:104BD0007047704770B588B00D460021264A009195
:104BE000019102910391254BD16091601B680C46A5
:104BF0001844106011750820106190208DF8000095
:104C00008DF801108DF802101C4B8DF803100191E6
:104C10001B1D6A4618491A48FCF78AF810B1194852
:104C2000FBF7D2FB02A906A8FBF796FF092810D2D2
:104C30009DF8181014A0FBF7C7FB02AE19A0315D58
:104C4000FBF7C2FB641CE4B2082CF7D317A0FBF7F8
:104C5000BBFBBDF80A00ADF81000BDF80C00ADF8C4
:104C60001200BDF80E00ADF8140004982860BDF8DD
:104C70001400A88008B070BD080300201C000020AC
:104C8000C8020020100C000843414E69643A307895
:104C90002532782C205265636569766520646174DD
:104CA00061203A0025303278200000000D0A000013
:104CB00070B588B00D4600212C4A009101910291F7
:104CC00003912B4BD16091601B680C461844106017
:104CD00011750820106130208DF800008DF801104A
:104CE0008DF80210224B8DF8031001911B1D6A46AE
:104CF0001E492048FCF71CF810B11F48FBF764FB65
:104D000002A906A8FBF728FF092810D29DF8181061
:104D10001AA0FBF759FB02AE1FA0315DFBF754FB55
:104D2000641CE4B2082CF7D31DA0FBF74DFB9DF8E3
:104D30000A008DF810009DF80B008DF811009DF809
:104D40000C008DF812009DF80D008DF813009DF8F1
:104D50000E008DF814009DF80F008DF815000498D2
:104D60002860BDF81400A88008B070BD08030020BA
:104D70001C000020C8020020100C000843414E69AE
:104D8000643A30782532782C2052656365697665FF
:104D90002064617461203A002530327820000000E0
:104DA0000D0A00007047000070B5214C92B000253C
:104DB000266846F080562660246804F080541194DA
:104DC0001C4C266846F48046266024680DF1240CAD
:104DD00004F48044119401240094240401940224D6
:104DE00006948CE80D006605CDE907616846FCF77E
:104DF0005BFC00B1FEE70CA90F2081E831004FF405
:104E0000A0500F904FF48050109005210CA8FCF793
:104E100063FB00B1FEE7FCF7D5FA41F201018842DD
:104E200004D10548016841F48071016012B070BD81
:104E30004038024000700040003C0240FCF7CEBA0F
:104E40001048016841F4700101600F48016841F0A9
:104E5000010101600C4A00210832116002680B4B0D
:104E60001A400260031D0A4A1A60026822F4802276
:104E7000026005480C30016002495806803908601C
:104E80007047000088ED00E000380240FFFFF6FEAA
:104E90001030002410B50A4C2068C068C043C00719
:104EA00009D10848006980472168002048622168CC
:104EB0006420C862E06021686FF00100086110BDE5
:104EC0003C0300206C000020F0B50268254D264E02
:104ED000264FDFF89CC0274B4FF0804EA84209D0E8
:104EE000704507D0B04205D0B84203D0604501D02C
:104EF000984203D122F070044A682243A8421BD092
:104F0000704519D0B04217D0B84215D0604513D0C3
:104F1000984211D0184CA0420ED0184CA0420BD091
:104F2000174CA04208D0174CA04205D0164CA04206
:104F300002D0164CA04203D122F44074CA68224326
:104F40004C6922F08002224302608A68C2620A68C9
:104F50008262A84201D0984201D10969016301210E
:104F60004161F0BD00000140000400400008004025
:104F7000000C00400004014000400140004401409A
:104F80000048014000180040001C00400020004084
:104F9000F8B5064610480D460024016841F00401AA
:104FA00001600068032200F00400009011461E20FA
:104FB000FCF760FA1E20FCF750FA094A0748106017
:104FC000C2E90154C2E903641046FCF79FFDBDE845
:104FD000F8400348FCF7B6BD4038024000080040E6
:104FE0003C03002010B5806B0021C185C184FCF713
:104FF000BAFD10BD0168CA6822F49072CA600168E7
:105000004A6922F001024A61202180F83A10704773
:1050100010B590F83A10222901D0022010BD816805
:10502000B1F5805F11D00169002901681FD049687E
:1050300001F07F03816A4A1C82620B70C18D491E98
:105040000904090CC18518D02BE00269816A002A85
:105050000268526805D0D2B20A80816A491C816216
:10506000ECE7C2F308020A80816A891CF7E74A6804
:10507000816A4B1C83620A70E0E70168CA6822F00B
:105080002002CA600168CA6822F48072CA6001689E
:105090004A6922F001024A61202180F83A10FCF7A7
:1050A0008BFE002010BD00002DE9F0410446006891
:1050B0000169E26821F4405111430161A16820694E
:1050C000E26901436069104301432068C26849F204
:1050D0000C639A430A43C26020684169A26921F4C3
:1050E000407111434161E0696425B0F5004F974A72
:1050F000974920684FF032083FD0884201D0904253
:105100007CD1FCF791FA00EBC00101EB0010616863
:105110008900B0FBF1F6FCF787FA00EBC00101EB68
:10512000001061688900B0FBF1F0B0FBF5F06FF0A2
:105130001801484306EB800108EB0110B0FBF5F0C5
:1051400000F0F006FCF770FA00EBC00101EB001074
:1051500061688900B0FBF1F0B0FBF5F006EB0016DA
:10516000FCF762FA00EBC00101EB001061688900F6
:10517000B0FBF1F7FCF758FAD2E0884201D0904238
:105180003DD1FCF751FA00EBC00101EB0010616862
:105190004900B0FBF1F0B0FBF5F00601FCF744FA72
:1051A00000EBC00101EB001061684900B0FBF1F7B2
:1051B000FCF73AFA00EBC00101EB0010616849000E
:1051C000B0FBF1F0B0FBF5F06FF01801484307EBCE
:1051D000800108EBC100B0FBF5F000F0F80006EB31
:1051E0004006FCF721FA00EBC00101EB00106168FA
:1051F0004900B0FBF1F7FCF717FA3CE055E0FCF78B
:1052000003FA00EBC00101EB001061684900B0FB3C
:10521000F1F0B0FBF5F00601FCF7F6F900EBC00188
:1052200001EB001061684900B0FBF1F7FCF7ECF905
:1052300000EBC00101EB001061684900B0FBF1F028
:10524000B0FBF5F06FF01801484307EB800108EB65
:10525000C100B0FBF5F000F0F80006EB4006FCF7EB
:10526000D3F900EBC00101EB001061684900B0FB0D
:10527000F1F7FCF7C9F900EBC00101EB0010616820
:105280004900B0FBF1F0B0FBF5F06FF018014843B6
:1052900007EB800108EBC100B0FBF5F000F0070060
:1052A000216830448860BDE8F081FCF7ADF900EB7F
:1052B000C00101EB001061688900B0FBF1F6FCF75A
:1052C000A3F900EBC00101EB001061688900B0FB9D
:1052D000F1F0B0FBF5F06FF01801484306EB8001E8
:1052E00008EB0110B0FBF5F000F0F006FCF78CF9CC
:1052F00000EBC00101EB001061688900B0FBF1F028
:10530000B0FBF5F006EB0016FCF77EF900EBC001F0
:1053100001EB001061688900B0FBF1F7FCF774F94C
:1053200000EBC00101EB001061688900B0FBF1F0F7
:10533000B0FBF5F06FF01801484307EB800108EB74
:105340000110B0FBF5F000F00F00A9E700140140D8
:105350000010014090F83910212901D00220704737
:105360008168B1F5805F016A0BD04A1C0262026855
:1053700009785160C18C491E0904090CC1840ED002
:1053800017E009880268C1F308015160016900292A
:10539000016A02D0491C0162ECE7891CFBE7016845
:1053A000CA6822F08002CA600068C16841F040010A
:1053B000C160002070472DE9F0411E46174688461F
:1053C0000446069D1CE0681C1AD025B1FCF700F8C5
:1053D000801BA84214D92068C16821F4D071C16033
:1053E0002068416921F001014161202084F83900E1
:1053F00084F83A00002084F838000320BDE8F081EA
:105400002068016838EA010004D00020B842DAD0F0
:105410000020F3E70120F9E710B50848FCF7AAFBE4
:105420000648FCF7A1FB2028FAD1012204490348D1
:10543000FCF798FC0028F8D110BD000028020020DD
:1054400014000020FEE70907090E002804DB00F124
:10545000E02080F80014704700F00F0000F1E02019
:1054600080F8141D704730380A2801D20120704797
:10547000002070477047000010B504460420FCF778
:1054800025FB0148046010BD1000002070B50546E2
:1054900000244FF47A7603E0304600F005F8641CEF
:1054A000AC42F9D370BD000070B54FF0E02500218B
:1054B0006C69094AAB6912685043AA699A42FCD0E8
:1054C00002D2A3EB020302E0A4EB02063344194428
:1054D00013468142F1D370BD1000002003490A68D1
:1054E0005206FCD5C2B24A6070470000001001406D
:1054F000E6B00025C82101A8FBF7C5F9C82133A8EB
:10550000FBF7C1F9FBF772FF0723022208214FF4D2
:10551000A870FFF749FCA820FFF7AEFF4FF4E13079
:1055200000F024F9FFF712F9FCF7D2FCFCF786FD36
:10553000A8464FF400324446062311014046CDF8F8
:105540000080FBF7E1FAFBF72DFB21463046FBF725
:1055500078F9DFF8B090DFF8B0A04C46B9F8000059
:10556000010430D5C0F30D06314628A0FAF72CFF10
:1055700032462F4901A8FBF7EDF84FF47A73324613
:105580002B492C48FCF744FC2A4800680168C943B1
:105590004906FBD428A0FAF717FFA4F80080F1B25F
:1055A00001A8FFF775F901A925A0FAF70DFF00245E
:1055B00001AF05E0395D24A0FAF706FF641CE4B2F0
:1055C000B442CAD2F6E76D1CADB2C820B5FBF0F10B
:1055D00000FB115010B91DA0FAF7F6FE1E20B5FB16
:1055E000F0F100FB115030B9DAF8A402514630B1A5
:1055F0000020C1F8A4020A20FFF748FFADE7012010
:10560000F7E7000016000020008042420D0A796F83
:10561000752073656E64206D657373616765206CBA
:10562000656E3A25642C646174613A0D0A000000CD
:1056300060010020280200200D0A0D0A0000000071
:1056400025730D0A00000000257800000D0A706C1B
:10565000656173652073656E642064617461207593
:105660007365202A2F20656E64200D0A000000005B
:105670000068704770B58AB0002305462D48009336
:105680000193029303932C4EC360836036681C46DB
:1056900031440160037508210161A2208DF80000EA
:1056A0008DF80420100A8DF805008DF80130100CDB
:1056B0008DF802308DF806008DF80330100E1E4B69
:1056C0008DF807001B1D6A461A491C48FBF730FB82
:1056D00010B11B48FAF778FE02A909A8FBF73CFABB
:1056E000092810D29DF8241016A0FAF76DFE02AE1C
:1056F0001BA0315DFAF768FE641CE4B2082CF7D3F6
:1057000019A0FAF761FE9DF809008DF81000BDF8A8
:105710000A00ADF81600BDF80C00ADF81800BDF891
:105720000E00ADF81A00122204A92846FBF712F861
:105730000AB070BD080300201C000020C802002031
:10574000100C000843414E69643A30782532782CB9
:1057500020526563656976652064617461203A0052
:1057600025303278200000000D0A00000B4910B5EA
:10577000094AC1E9002000208860C860086188618A
:105780000C2048610846FCF77DFABDE81040012274
:1057900003490248FCF7E6BA001001402802002045
:1057A0001400002070B594B0064613AB11AA6946E8
:1057B00000F0DCF9002824D18DF840001D4C0425B0
:1057C00014E0206805EBC10113AB405812AA08A9E8
:1057D00000F0CCF9002814D1694608A800F001FCBB
:1057E00088B19DF84000401C8DF84000207D9DF858
:1057F00040108842E5D8207D9DF8401088420ED1A7
:10580000042014B070BD9DF848009DF844108842F3
:1058100001D90220F5E79DF84000A075EBE710A93B
:10582000304600F057FA0028EBD19DF84000607533
:105830000020E6E76C0000202DE9F0417E4E9AB092
:10584000B57D307DA8427CD90421306801EBC501CB
:1058500019AB405818AA10A900F088F910A977A030
:10586000FAF7B2FD00240DF1180832E0308B012167
:10587000A140084217D0222172A0FAF7A5FD2046C8
:1058800000F090FA811970A02431FAF79DFD2221D1
:105890006CA0FAF799FD204600F084FA30442430D9
:1058A00048F824000BE0204600F07CFA3044416ABE
:1058B00048F82410F07D00B364A0FAF785FD9DF848
:1058C0006000401E844202D062A0FAF77DFD641C95
:1058D000E4B29DF860008442C8D35FA0FAF774FD7B
:1058E00000F0A6FA707D0B2814D2DFE800F0080D56
:1058F00031384048525E6B78890058A0DDE7306847
:1059000050F83500804704E0306850F835100698AC
:105910008847074600F058FA9DF8640001286ED0C9
:105920004FA0FAF751FD96F8EC0000280DD0D6F8FC
:10593000F0000A21B0FBF1F201FB1202B0FBF1F121
:1059400000E002E047A0FAF73FFD1AB0BDE8F081A1
:10595000306850F83520DDE906019047D9E7306816
:1059600006AC50F8353094E807009847D1E7306826
:1059700006AF50F8354097E80F00A047C9E70A98EE
:105980000090306806AF50F8354097E80F00A04708
:10599000BFE7DDE90A01CDE90001306806AF50F844
:1059A000354097E80F00A047B3E70AAB06AF93E88E
:1059B00007008DE80700306850F8354097E80F0081
:1059C000A047A6E70AAC06AF94E80F008DE80F00E9
:1059D000306850F8354097E80F00A04799E70BACC6
:1059E00006AF94E80F0001AC84E80F000A9800901D
:1059F000306850F8354097E80F00A04789E711E07C
:105A00000CAC06AF94E80F0002AC84E80F00DDE9AF
:105A10000A01CDE90001306850F8354097E80F00E1
:105A2000A04776E7F07D394618B116A0FAF7CCFC0E
:105A300079E717A0FAE700006C0000200D0A257333
:105A40002800000025630000257300003058255809
:105A5000000000002C00000029000000256C6400FC
:105A60003B0D0A0046756E6374696F6E2052756E49
:105A70002054696D653A25642E2531646D730D0AD5
:105A8000000000003D305825583B0D0A0000000082
:105A90003D256C753B0D0A00F0B500252E462F46BE
:105AA0002C4603782C2B03D0292B04D01BB103E008
:105AB00014B9012600E00CB317B1222B2AD02AE03A
:105AC000A3F1300CBCF1090F19D92D2B17D02B2BBA
:105AD00015D0A3F1610CBCF1050F10D9A3F1410C55
